{
  "_format": "hh-sol-artifact-1",
  "contractName": "StealthSigner",
  "sourceName": "contracts/StealthSigner.sol",
  "abi": [
    {
      "inputs": [
        {
          "internalType": "address",
          "name": "otherEnd",
          "type": "address"
        }
      ],
      "stateMutability": "payable",
      "type": "constructor"
    },
    {
      "inputs": [],
      "name": "AutoConfigUnavailable",
      "type": "error"
    },
    {
      "inputs": [],
      "name": "DER_Split_Error",
      "type": "error"
    },
    {
      "inputs": [],
      "name": "MissingRemoteAddr",
      "type": "error"
    },
    {
      "inputs": [],
      "name": "MissingRemoteChainId",
      "type": "error"
    },
    {
      "inputs": [],
      "name": "SelfCallDisallowed",
      "type": "error"
    },
    {
      "inputs": [],
      "name": "expmod_Error",
      "type": "error"
    },
    {
      "inputs": [],
      "name": "k256Decompress_Invalid_Length_Error",
      "type": "error"
    },
    {
      "inputs": [],
      "name": "k256DeriveY_Invalid_Prefix_Error",
      "type": "error"
    },
    {
      "inputs": [],
      "name": "recoverV_Error",
      "type": "error"
    },
    {
      "anonymous": false,
      "inputs": [
        {
          "indexed": false,
          "internalType": "uint256",
          "name": "example",
          "type": "uint256"
        }
      ],
      "name": "TestEvent",
      "type": "event"
    },
    {
      "inputs": [],
      "name": "DOMAIN_SEPARATOR",
      "outputs": [
        {
          "internalType": "bytes32",
          "name": "",
          "type": "bytes32"
        }
      ],
      "stateMutability": "view",
      "type": "function"
    },
    {
      "inputs": [],
      "name": "EIP712_DOMAIN_TYPEHASH",
      "outputs": [
        {
          "internalType": "bytes32",
          "name": "",
          "type": "bytes32"
        }
      ],
      "stateMutability": "view",
      "type": "function"
    },
    {
      "inputs": [],
      "name": "SIGNIN_TYPE",
      "outputs": [
        {
          "internalType": "string",
          "name": "",
          "type": "string"
        }
      ],
      "stateMutability": "view",
      "type": "function"
    },
    {
      "inputs": [],
      "name": "SIGNIN_TYPEHASH",
      "outputs": [
        {
          "internalType": "bytes32",
          "name": "",
          "type": "bytes32"
        }
      ],
      "stateMutability": "view",
      "type": "function"
    },
    {
      "inputs": [
        {
          "internalType": "uint256",
          "name": "example",
          "type": "uint256"
        }
      ],
      "name": "calledByOurselves",
      "outputs": [],
      "stateMutability": "nonpayable",
      "type": "function"
    },
    {
      "inputs": [
        {
          "internalType": "string",
          "name": "metaAddress",
          "type": "string"
        },
        {
          "internalType": "uint32",
          "name": "k",
          "type": "uint32"
        },
        {
          "internalType": "bytes",
          "name": "ephemeralPub",
          "type": "bytes"
        },
        {
          "internalType": "bytes1",
          "name": "viewHint",
          "type": "bytes1"
        }
      ],
      "name": "checkStealthAddress",
      "outputs": [
        {
          "internalType": "address",
          "name": "stealthAddress",
          "type": "address"
        }
      ],
      "stateMutability": "view",
      "type": "function"
    },
    {
      "inputs": [
        {
          "components": [
            {
              "internalType": "address",
              "name": "user",
              "type": "address"
            },
            {
              "internalType": "uint32",
              "name": "time",
              "type": "uint32"
            },
            {
              "components": [
                {
                  "internalType": "bytes32",
                  "name": "r",
                  "type": "bytes32"
                },
                {
                  "internalType": "bytes32",
                  "name": "s",
                  "type": "bytes32"
                },
                {
                  "internalType": "uint256",
                  "name": "v",
                  "type": "uint256"
                }
              ],
              "internalType": "struct SignatureRSV",
              "name": "rsv",
              "type": "tuple"
            }
          ],
          "internalType": "struct StealthSigner.SignIn",
          "name": "auth",
          "type": "tuple"
        },
        {
          "internalType": "string",
          "name": "metaAddress",
          "type": "string"
        },
        {
          "internalType": "uint32",
          "name": "k",
          "type": "uint32"
        },
        {
          "internalType": "bytes",
          "name": "ephemeralPub",
          "type": "bytes"
        }
      ],
      "name": "computeStealthKey",
      "outputs": [
        {
          "internalType": "bytes32",
          "name": "stealthKey",
          "type": "bytes32"
        },
        {
          "internalType": "address",
          "name": "stealthAddress",
          "type": "address"
        }
      ],
      "stateMutability": "view",
      "type": "function"
    },
    {
      "inputs": [
        {
          "components": [
            {
              "internalType": "address",
              "name": "user",
              "type": "address"
            },
            {
              "internalType": "uint32",
              "name": "time",
              "type": "uint32"
            },
            {
              "components": [
                {
                  "internalType": "bytes32",
                  "name": "r",
                  "type": "bytes32"
                },
                {
                  "internalType": "bytes32",
                  "name": "s",
                  "type": "bytes32"
                },
                {
                  "internalType": "uint256",
                  "name": "v",
                  "type": "uint256"
                }
              ],
              "internalType": "struct SignatureRSV",
              "name": "rsv",
              "type": "tuple"
            }
          ],
          "internalType": "struct StealthSigner.SignIn",
          "name": "auth",
          "type": "tuple"
        },
        {
          "internalType": "string",
          "name": "metaAddress",
          "type": "string"
        },
        {
          "internalType": "uint32",
          "name": "k",
          "type": "uint32"
        },
        {
          "internalType": "bytes",
          "name": "ephemeralPub",
          "type": "bytes"
        },
        {
          "internalType": "uint64",
          "name": "nonce",
          "type": "uint64"
        },
        {
          "internalType": "uint256",
          "name": "gasPrice",
          "type": "uint256"
        },
        {
          "internalType": "uint256",
          "name": "chainId",
          "type": "uint256"
        }
      ],
      "name": "createTransaction",
      "outputs": [
        {
          "internalType": "bytes",
          "name": "",
          "type": "bytes"
        }
      ],
      "stateMutability": "view",
      "type": "function"
    },
    {
      "inputs": [
        {
          "internalType": "address",
          "name": "_sender",
          "type": "address"
        },
        {
          "internalType": "uint64",
          "name": "_senderChainId",
          "type": "uint64"
        },
        {
          "internalType": "bytes",
          "name": "_message",
          "type": "bytes"
        },
        {
          "internalType": "address",
          "name": "",
          "type": "address"
        }
      ],
      "name": "executeMessage",
      "outputs": [
        {
          "internalType": "uint256",
          "name": "",
          "type": "uint256"
        }
      ],
      "stateMutability": "payable",
      "type": "function"
    },
    {
      "inputs": [
        {
          "internalType": "string",
          "name": "metaAddress",
          "type": "string"
        },
        {
          "internalType": "uint32",
          "name": "k",
          "type": "uint32"
        }
      ],
      "name": "generateStealthAddress",
      "outputs": [
        {
          "internalType": "address",
          "name": "stealthAddress",
          "type": "address"
        },
        {
          "internalType": "bytes",
          "name": "ephemeralPub",
          "type": "bytes"
        },
        {
          "internalType": "bytes1",
          "name": "viewHint",
          "type": "bytes1"
        }
      ],
      "stateMutability": "view",
      "type": "function"
    },
    {
      "inputs": [
        {
          "components": [
            {
              "internalType": "address",
              "name": "user",
              "type": "address"
            },
            {
              "internalType": "uint32",
              "name": "time",
              "type": "uint32"
            },
            {
              "components": [
                {
                  "internalType": "bytes32",
                  "name": "r",
                  "type": "bytes32"
                },
                {
                  "internalType": "bytes32",
                  "name": "s",
                  "type": "bytes32"
                },
                {
                  "internalType": "uint256",
                  "name": "v",
                  "type": "uint256"
                }
              ],
              "internalType": "struct SignatureRSV",
              "name": "rsv",
              "type": "tuple"
            }
          ],
          "internalType": "struct StealthSigner.SignIn",
          "name": "auth",
          "type": "tuple"
        },
        {
          "internalType": "uint256",
          "name": "index",
          "type": "uint256"
        }
      ],
      "name": "getMetaAddress",
      "outputs": [
        {
          "internalType": "string",
          "name": "metaAddress",
          "type": "string"
        },
        {
          "internalType": "bytes",
          "name": "spendPub",
          "type": "bytes"
        },
        {
          "internalType": "bytes",
          "name": "viewingPub",
          "type": "bytes"
        }
      ],
      "stateMutability": "view",
      "type": "function"
    },
    {
      "inputs": [
        {
          "components": [
            {
              "internalType": "address",
              "name": "user",
              "type": "address"
            },
            {
              "internalType": "uint32",
              "name": "time",
              "type": "uint32"
            },
            {
              "components": [
                {
                  "internalType": "bytes32",
                  "name": "r",
                  "type": "bytes32"
                },
                {
                  "internalType": "bytes32",
                  "name": "s",
                  "type": "bytes32"
                },
                {
                  "internalType": "uint256",
                  "name": "v",
                  "type": "uint256"
                }
              ],
              "internalType": "struct SignatureRSV",
              "name": "rsv",
              "type": "tuple"
            }
          ],
          "internalType": "struct StealthSigner.SignIn",
          "name": "auth",
          "type": "tuple"
        }
      ],
      "name": "register",
      "outputs": [],
      "stateMutability": "nonpayable",
      "type": "function"
    }
  ],
  "bytecode": "0x60e0604052614f0f803803601f19601f82011660e00160e0811060018060401b038211176100ba57602092829160405260e039126100b55760e0516001600160a01b03811681036100b55761005390610450565b604051613e4190816110ce82396080518181816118ee015281816121c40152818161228201528181612a1b0152612b0b015260a0518161197e015260c05181818161022e01528181610413015281816104ca0152818161088a015261127c0152f35b600080fd5b634e487b7160e01b600052604160045260246000fd5b601f909101601f19168101906001600160401b038211908210176100f357604052565b6100ba565b604051906101076040836100d0565b565b6001600160401b0381116100f357601f01601f191660200190565b604051906101336040836100d0565b60088252673932b3b4b9ba32b960c11b6020830152565b60005b83811061015d5750506000910152565b818101518382015260200161014d565b906101806020928281519485920161014a565b0190565b602061019d91816040519382858094519384920161014a565b8101600581520301902090565b60206101c391816040519382858094519384920161014a565b8101600781520301902090565b90600182811c92168015610200575b60208310146101ea57565b634e487b7160e01b600052602260045260246000fd5b91607f16916101df565b601f821161021757505050565b6000526020600020906020601f840160051c83019310610252575b601f0160051c01905b818110610246575050565b6000815560010161023b565b9091508190610232565b81518051909392906001600160401b0381116100f3576102868161028085546101d0565b8561020a565b6020601f82116001146102d35781602093926102be9260019697986000926102c8575b50508160011b916000199060031b1c19161790565b84555b0151910155565b0151905038806102a9565b601f198216906102e885600052602060002090565b9160005b81811061032e5750918391600196979860209695889510610315575b505050811b0184556102c1565b015160001960f88460031b161c19169055388080610308565b9192602060018192868c0151815501940192016102ec565b634e487b7160e01b600052603260045260246000fd5b919091805490680100000000000000008210156100f3576001820180825582101561044b57600052602060002001825160018060401b0381116100f3576103ad816103a784546101d0565b8461020a565b6020601f82116001146103e25781906103de9394956000926102c85750508160011b916000199060031b1c19161790565b9055565b601f198216906103f784600052602060002090565b9160005b8181106104335750958360019596971061041a575b505050811b019055565b015160001960f88460031b161c19169055388080610410565b9192602060018192868b0151815501940192016103fb565b610346565b6104629061045c6106e9565b90610636565b6104a061046d610124565b80516020918201206001600160e01b031916600090815260029091526040902080546001600160401b0319166001179055565b604080517f8b73c3c69bb8fe3d512ecc4cf759cc79239f7b179b0ffacaa9a75d522b39400f602082019081527fb5a3263d2d461072053ad1275d5cebc715eac557396f6c32f97ea05458c843c8928201929092527fc89efdaa54c0f20c7adf612882df0950f5a951637e0307cdcb4c672f298b8bc660608201524660808201523060a082015261053d8160c081015b03601f1981018352826100d0565b51902060c0526101076105986105f66105546107ef565b906105ca6105606107ef565b9290936105ac61056f866109fb565b61059e61057b856109fb565b604051680e6e874cae8d07460f60bb1b60208201529a8b93602985015b9061016d565b03601f1981018952886100d0565b6105b46100f8565b91825260208201526105c586610184565b61025c565b6105d26100f8565b91825260208201526105c53360018060a01b03166000526006602052604060002090565b61062233610603836101aa565b80546001600160a01b0319166001600160a01b03909216919091179055565b33600090815260086020526040902061035c565b61064961064283610aba565b9282610ada565b906001600160a01b031680156106d85782156106c757600080546001600160a01b031916821781556001849055608083905260a0526001600160a01b03908116911614806106bc575b1590816106b2575b506106a157565b6336fc0b5f60e21b60005260046000fd5b905046143861069a565b506001544614610692565b630a9e222360e41b60005260046000fd5b635f9997df60e01b60005260046000fd5b600061053946148015610758575b61074b5761070446610af7565b9050610738576107196262736360e81b610d76565b1561072957506262736360e81b90565b63047a7e4960e21b8152600490fd5b506a189cd8cb5d195cdd1b995d60aa1b90565b50641b1bd8d85b60da1b90565b50617a6946146106f7565b602081519101519060208110610777575090565b6000199060200360031b1b1690565b80511561044b5760200190565b90815181101561044b570160200190565b634e487b7160e01b600052601160045260246000fd5b70014551231950b75fc4402da1732fc9bebe19039070014551231950b75fc4402da1732fc9bebe1982116107ea57565b6107a4565b60209060008060405161080285826100d0565b8181526040516108268161052f888201948986526040808401526060830190610f43565b51907301000000000000000000000000000000000000015afa90610848610f68565b91156109035761086061085a83610763565b92611023565b508093600360ff6108a261089c61087686610786565b517fff000000000000000000000000000000000000000000000000000000000000001690565b60f81c90565b16146108ac575050565b9193509160216108de61052f6108d96108c7610900956107ba565b60405192839188830160209181520190565b610763565b9301519161052f6040519384928301602191600160f91b825260018201520190565b91565b60405162461bcd60e51b815260048101849052601360248201527f72616e646f6d42797465733a206661696c6564000000000000000000000000006044820152606490fd5b908160011b91808304600214901517156107ea57565b9061096882610109565b61097560405191826100d0565b8281528092610986601f1991610109565b0190602036910137565b6040519061099f6040836100d0565b601082526f181899199a1a9b1b9c1cb0b131b232b360811b6020830152565b634e487b7160e01b600052601260045260246000fd5b81156109de570490565b6109be565b81156109de570690565b90600182018092116107ea57565b9081518060011b90808204600214901517156107ea57610a1a9061095e565b610a22610990565b9260005b8151811015610ab35780610a5c610876610a56610a4b61089c61087660019789610793565b60ff8a5191166109d4565b88610793565b610a73610a6883610948565b9160001a9186610793565b53610a98610876610a56610a8d61089c6108768689610793565b60ff8a5191166109e3565b610aac610a68610aa784610948565b6109ed565b5301610a26565b5090925050565b641b1bd8d85b60da1b8114610ad557610ad290610d76565b90565b504690565b90641b1bd8d85b60da1b14610ad25750610af346610af7565b5090565b60018114610d5a5760058114610d3e57600a8114610d225760388114610d065760618114610cea5760898114610cce5760fa8114610cb257610fa28114610c96576105058114610c7a57615afe8114610c5e57615aff8114610c425761a4b18114610c265761a4ba8114610c0a5761a8698114610bee5761a86a8114610bd257620138818114610bb65762066eeb14610b9b5763047a7e4960e21b60005260046000fd5b737d43aabc515c356145049227cee54b608342c0ad90600190565b50737d43aabc515c356145049227cee54b608342c0ad90600190565b50735a926eeeafc4d217add17e9641e8ce23cd01ad5790600090565b5073e9533976c590200e32d95c53f06ae12d292cfc4790600190565b5073f5c6825015280cdfd0b56903f9f8b5a2233476f590600090565b50733ad9d0648cdaa2426331e894e980d0a5ed16257f90600090565b50739bb46d5100d2db4608112026951c9c965b233f4d90600190565b50739bb46d5100d2db4608112026951c9c965b233f4d90600090565b5073940daaba3f713abfabd79cdd991466fe698cbe5490600090565b5073b92d6933a024bcca9a21669a480c236cbc97311090600190565b5073ff4e183a0ceb4fa98e63bbf8077b929c8e5a2ba490600090565b5073afdb9c40c7144022811f034ee07ce2e110093fe690600090565b5073ad204986d6cb67a5bc76a3cb8974823f43cb9aaa90600190565b507395714818fdd7a5454f73da9c777b3ee6ebaeea6b90600090565b50730d71d18126e03646eb09fec929e2ae87b7cae69d90600090565b5073f25170f86e4291a99a9a560032fe9948b8bcfbb290600190565b50734066d196a423b2b3b8b054f4f40efb47a74e200c90600090565b67657468657265756d60c01b8114610f3d5765676f65726c6960d01b8114610f3757676f7074696d69736d60c01b8114610f31576262736360e81b8114610f2b576a189cd8cb5d195cdd1b995d60aa1b8114610f2557663837b63cb3b7b760c91b8114610f1f576566616e746f6d60d01b8114610f19576d19985b9d1bdb4b5d195cdd1b995d60921b8114610f12576836b7b7b73934bb32b960b91b8114610f0b576b617262697472756d2d6f6e6560a01b8114610f04576c617262697472756d2d6e6f766160981b8114610efd5767736170706869726560c01b8114610ef6576f1cd85c1c1a1a5c994b5d195cdd1b995d60821b8114610eef576d706f6c79676f6e2d6d756d62616960901b8114610ee757686176616c616e63686560b81b8114610ee0576d6176616c616e6368652d66756a6960901b8114610ed9576f185c989a5d1c9d5b4b5d195cdd1b995d60821b14610ed257600090565b62066eeb90565b5061a93190565b5061a86a90565b506201388190565b50615aff90565b50615afe90565b5061a4ba90565b5061a4b190565b5061050590565b50610fa290565b5060fa90565b50608990565b50606190565b50603890565b50600a90565b50600590565b50600190565b90602091610f5c8151809281855285808601910161014a565b601f01601f1916010190565b3d15610f93573d90610f7982610109565b91610f8760405193846100d0565b82523d6000602084013e565b606090565b81601f820112156100b5578051610fae81610109565b92610fbc60405194856100d0565b818452602082840101116100b557610ad2916020808501910161014a565b9190916040818403126100b55780516001600160401b0381116100b55783611003918301610f98565b60208201519093906001600160401b0381116100b557610ad29201610f98565b6000809160405161104a8161052f6020820194600486526040808401526060830190610f43565b51907301000000000000000000000000000000000000055afa61106b610f68565b9015611088578060208061108493518301019101610fda565b9091565b60405162461bcd60e51b815260206004820152601b60248201527f67656e207369676e696e67206b6579706169723a206661696c656400000000006044820152606490fdfe6080604052600436101561001257600080fd5b60003560e01c8063033c9c62146100d75780632f51a768146100d25780633644e515146100cd578063383ccf98146100c857806351578ed6146100c3578063897bb3a8146100be5780639c649fdf146100b9578063c7977be7146100b4578063c7d480fb146100af578063c80243a2146100aa578063dbe0a856146100a55763f01593a9146100a057600080fd5b610b16565b610957565b610831565b610801565b6106cb565b61065d565b61060c565b610571565b61046d565b6103fb565b61034d565b61012e565b60031960a09101126100ed57600490565b600080fd5b9181601f840112156100ed5782359167ffffffffffffffff83116100ed57602083818601950101116100ed57565b63ffffffff8116036100ed57565b346100ed576101006003193601126100ed57610149366100dc565b60a43567ffffffffffffffff81116100ed576101699036906004016100f2565b9060c43561017681610120565b60e43567ffffffffffffffff81116100ed576101969036906004016100f2565b939092602060008188016101c26101ac82611018565b63ffffffff6101ba42611038565b911611611109565b6101ca610b04565b9061021a6101e06101da8c611110565b92611018565b604080518781019586526001600160a01b03909416602086015263ffffffff9091169084015281606084015b03601f198101835282610759565b51902060405161190160f01b8482019081527f000000000000000000000000000000000000000000000000000000000000000060028201526022810192909252610267816042840161020c565b5190206040805191825260808a81013560ff166020840152818b0135918301919091526060808b0135908301528280529060015afa156102ec576102cc956102c76000516001600160a01b03806102bd85611110565b9216911614611126565b6111ee565b604080519283526001600160a01b039091166020830152819081015b0390f35b61111a565b60005b8381106103045750506000910152565b81810151838201526020016102f4565b90601f19601f602093610332815180928187528780880191016102f1565b0116010190565b90602061034a928181520190610314565b90565b346100ed576101606003193601126100ed57610368366100dc565b60a43567ffffffffffffffff81116100ed576103889036906004016100f2565b909160c4359261039784610120565b60e43567ffffffffffffffff81116100ed576103b79036906004016100f2565b610104359167ffffffffffffffff831683036100ed576102e8966103e49661012435956101443597611235565b60405191829182610339565b60009103126100ed57565b346100ed5760006003193601126100ed5760206040517f00000000000000000000000000000000000000000000000000000000000000008152f35b9161045f9061045161034a9593606086526060860190610314565b908482036020860152610314565b916040818403910152610314565b346100ed5760c06003193601126100ed57610487366100dc565b60a435906020600081830161049e6101ac82611018565b6104a6610b04565b906104b66101e06101da87611110565b51902060405161190160f01b8482019081527f000000000000000000000000000000000000000000000000000000000000000060028201526022810192909252610503816042840161020c565b5190206040805191825260808581013560ff1660208401528186013591830191909152606080860135908301528280529060015afa156102ec576102e8916105629161055d6000516001600160a01b03806102bd85611110565b611446565b60409391935193849384610436565b346100ed5760806003193601126100ed5760043567ffffffffffffffff81116100ed576105a29036906004016100f2565b906024356105af81610120565b60443567ffffffffffffffff81116100ed576105cf9036906004016100f2565b90606435926001600160f81b0319841684036100ed576102e8956105f2956115ef565b6040516001600160a01b0390911681529081906020820190565b346100ed5760206003193601126100ed577f1440c4dd67b4344ea1905ec0318995133b550f168b4ee959a0da6b503d7d24146020600435604051908152a1005b6001600160a01b038116036100ed57565b60806003193601126100ed576004356106758161064c565b60243567ffffffffffffffff811681036100ed576044359067ffffffffffffffff82116100ed576020926106b06106c39336906004016100f2565b9290916106be60643561064c565b6118d7565b604051908152f35b346100ed5760006003193601126100ed5760206040517f8b73c3c69bb8fe3d512ecc4cf759cc79239f7b179b0ffacaa9a75d522b39400f8152f35b634e487b7160e01b600052604160045260246000fd5b6060810190811067ffffffffffffffff82111761073857604052565b610706565b6040810190811067ffffffffffffffff82111761073857604052565b90601f601f19910116810190811067ffffffffffffffff82111761073857604052565b6040519061078b60e083610759565b565b6040519061078b604083610759565b9061078b6040519283610759565b67ffffffffffffffff811161073857601f01601f191660200190565b604051906107d5604083610759565b602082527f5369676e496e286164647265737320757365722c75696e7433322074696d65296020830152565b346100ed5760006003193601126100ed576102e861081d6107c6565b604051918291602083526020830190610314565b346100ed5760a06003193601126100ed5761084b366100dc565b6020600081830161085e6101ac82611018565b610866610b04565b906108766101e06101da87611110565b51902060405161190160f01b8482019081527f0000000000000000000000000000000000000000000000000000000000000000600282015260228101929092526108c3816042840161020c565b5190206040805191825260808581013560ff1660208401528186013591830191909152606080860135908301528280529060015afa156102ec5761091e906109196000516001600160a01b03806102bd85611110565b611a5d565b005b916109506001600160f81b0319916001600160a01b03604094979697168552606060208601526060850190610314565b9416910152565b346100ed5760406003193601126100ed5760043567ffffffffffffffff81116100ed576109889036906004016100f2565b906024359061099682610120565b6109a08382611171565b6109a990610c9c565b602081015115156109b9906113fb565b51926109c49161118a565b546001600160a01b031660009081526006602052604090206109e590610c9c565b602081015115156109f5906113fb565b51906109ff611ca5565b9093610a0a90612581565b90610a13611bbd565b8282610a1d611bf8565b90610a27936127e6565b610a30926126ea565b60408051602081019384529081019190915260e09290921b6001600160e01b03191660608301526044825290610a67606482610759565b51902090610a8870014551231950b75fc4402da1732fc9bebe198310611540565b610a91826115d6565b610a9a9061293b565b50610aa490612581565b9091610aaf90612581565b610ab99391612dda565b6040805160208101938452808201929092528152610ad8606082610759565b5190206001600160a01b03166001600160a01b031660405192839260001a60f81b906102e89284610920565b610b0c6107c6565b6020815191012090565b346100ed5760006003193601126100ed576020610b316107c6565b818151910120604051908152f35b8092910360c081126100ed5760a081126100ed576060603f1960405192610b658461071c565b8535610b708161064c565b84526020860135610b8081610120565b602085015201126100ed5760a090604051610b9a8161071c565b604085013581526060850135602082015260808501356040820152604082015292013590565b90600182811c92168015610bf0575b6020831014610bda57565b634e487b7160e01b600052602260045260246000fd5b91607f1691610bcf565b60009291815491610c0a83610bc0565b8083529260018116908115610c605750600114610c2657505050565b60009081526020812093945091925b838310610c46575060209250010190565b600181602092949394548385870101520191019190610c35565b905060209495507fffffffffffffffffffffffffffffffffffffffffffffffffffffffffffffff0091509291921683830152151560051b010190565b90604051610ca98161073d565b602060018294604051610cc781610cc08185610bfa565b0382610759565b84520154910152565b90610ce3602092828151948592016102f1565b0190565b6020610d009181604051938285809451938492016102f1565b8101600581520301902090565b6020610d269181604051938285809451938492016102f1565b8101600781520301902090565b601f8211610d4057505050565b6000526020600020906020601f840160051c83019310610d7b575b601f0160051c01905b818110610d6f575050565b60008155600101610d64565b9091508190610d5b565b919091825192835167ffffffffffffffff811161073857610db081610daa8554610bc0565b85610d33565b6020601f8211600114610dfc578160209392610de7926001969798600092610df1575b50506000198260011b9260031b1c19161790565b84555b0151910155565b015190503880610dd3565b601f19821690610e1185600052602060002090565b9160005b818110610e575750918391600196979860209695889510610e3e575b505050811b018455610dea565b015160001960f88460031b161c19169055388080610e31565b9192602060018192868c015181550194019201610e15565b61034a92918152604060208201526020610e9483516040808501526080840190610314565b920151906060603f1982850301910152610314565b60405190610eb8604083610759565b601082527f726567697374657243616c6c6261636b000000000000000000000000000000006020830152565b634e487b7160e01b600052603260045260246000fd5b8054821015610f125760005260206000200190600090565b610ee4565b91909180546801000000000000000081101561073857610f3c91600182018155610efa565b61100257825167ffffffffffffffff811161073857610f6581610f5f8454610bc0565b84610d33565b6020601f8211600114610f99578190610f95939495600092610df15750506000198260011b9260031b1c19161790565b9055565b601f19821690610fae84600052602060002090565b9160005b818110610fea57509583600195969710610fd1575b505050811b019055565b015160001960f88460031b161c19169055388080610fc7565b9192602060018192868b015181550194019201610fb2565b634e487b7160e01b600052600060045260246000fd5b3561034a81610120565b634e487b7160e01b600052601160045260246000fd5b907ffffffffffffffffffffffffffffffffffffffffffffffffffffffffffffeae80820191821161106557565b611022565b70014551231950b75fc4402da1732fc9bebe19039070014551231950b75fc4402da1732fc9bebe19821161106557565b907fffffffffffffffffffffffffffffffffffffffffffffffffffffffffffffffe5820191821161106557565b6401000003d01903906401000003d019821161106557565b602003906020821161106557565b90600019820191821161106557565b9190820391821161106557565b156100ed57565b3561034a8161064c565b6040513d6000823e3d90fd5b1561112d57565b606460405162461bcd60e51b815260206004820152600f60248201527f496e76616c6964205369676e2d496e00000000000000000000000000000000006044820152fd5b6020908260405193849283378101600581520301902090565b6020908260405193849283378101600781520301902090565b156111aa57565b606460405162461bcd60e51b815260206004820152601160248201527f556e617574686f72697a656420757365720000000000000000000000000000006044820152fd5b9061122c61123196959493926001600160a01b0380604051868682376020818881016007815203019020541691356112258161064c565b16146111a3565b61232f565b9091565b9796959493929190602060008a8281016112516101ac82611018565b6112686101e06101da611262610b04565b94611110565b51902060405161190160f01b8482019081527f0000000000000000000000000000000000000000000000000000000000000000600282015260228101929092526112b5816042840161020c565b5190206040805191825260808d81013560ff166020840152818e0135918301919091526060808e0135908301528280529060015afa156102ec5761034a9861130b6000516001600160a01b03806102bd85611110565b9661034a9861135a6113f098996001600160a01b036113526113466113406113338a8a61118a565b546001600160a01b031690565b93611110565b6001600160a01b031690565b9116146111a3565b6040517f897bb3a800000000000000000000000000000000000000000000000000000000602082015260248101839052906113a282604481015b03601f198101845283610759565b806113f5575046915b6113c66113b661077c565b67ffffffffffffffff909b168b52565b60208a0152620f424060408a01523060608a0152600060808a015260a089015260c088015261232f565b6123bc565b916113ab565b1561140257565b606460405162461bcd60e51b815260206004820152601e60248201527f6d65746141646472657373206e6f7420726567697374657265642079657400006044820152fd5b61148b61147761148494936001600160a01b0384356114648161064c565b1660005260086020526040600020610efa565b5060405194858092610bfa565b0384610759565b6114f66114f16114d861149d86610ce7565b6114d16001604051926114af8461073d565b6040516114c081610cc08185610bfa565b8452015480602084015215156113fb565b5193611110565b6001600160a01b03166000526006602052604060002090565b610c9c565b611505602082015115156113fb565b5191565b929192611515826107aa565b916115236040519384610759565b8294818452818301116100ed578281602093846000960137010152565b1561154757565b606460405162461bcd60e51b815260206004820152601260248201527f747765616b20697320746f6f206c6172676500000000000000000000000000006044820152fd5b1561159257565b606460405162461bcd60e51b815260206004820152601160248201527f7669657720746167206d69736d617463680000000000000000000000000000006044820152fd5b906040519160208301526020825261078b604083610759565b611346946116f66116f06116eb61034a996116e66001600160f81b03196116ad61020c9a61167b6116fe9a6116756117249f611670906117049f6114f16114d86113336116589360206116456114f1838c611171565b0151986116538a15156113fb565b61118a565b611667602082015115156113fb565b519d3691611509565b612581565b916126ea565b60408051602081019384529081019190915260e09290921b6001600160e01b031916606083015291816064810161020c565b519020926116ce70014551231950b75fc4402da1732fc9bebe198510611540565b166001600160f81b03198360001a60f81b161461158b565b6115d6565b61293b565b50612581565b929091612581565b90612dda565b819391506040519283916020830195869091604092825260208201520190565b5190206001600160a01b031690565b1561173a57565b606460405162461bcd60e51b815260206004820152600d60248201527f4e6f744d657373616765427573000000000000000000000000000000000000006044820152fd5b1561178557565b606460405162461bcd60e51b815260206004820152601160248201527f4e6f7452656d6f7465456e64706f696e740000000000000000000000000000006044820152fd5b906004116100ed5790600490565b906024116100ed5760040190602090565b90929192836024116100ed5783116100ed57602401916023190190565b919091356001600160e01b031981169260048110611821575050565b6001600160e01b0319929350829060040360031b1b161690565b359060208110611849575090565b6000199060200360031b1b1690565b1561185f57565b606460405162461bcd60e51b815260206004820152600b60248201527f57726f6e675365714e756d0000000000000000000000000000000000000000006044820152fd5b60001981146110655760010190565b634e487b7160e01b600052602160045260246000fd5b600311156118d257565b6118b2565b6119ef939291611942916119156001600160a01b037f0000000000000000000000000000000000000000000000000000000000000000163314611733565b6001600160a01b036119326113466000546001600160a01b031690565b9116149081611a46575b5061177e565b6119ea6119dc61197961195e61195886866117c9565b90611805565b948061197361196d82886117d7565b9061183b565b956117e8565b9490937f0000000000000000000000000000000000000000000000000000000000000000611a21575b506119c1816001600160e01b0319166000526002602052604060002090565b506001600160e01b0319166000526002602052604060002090565b5467ffffffffffffffff1690565b613ba4565b6119f8816118c8565b60018114611a1b5780611a0c6002926118c8565b14611a1657600090565b600190565b50600290565b611a3b611a4091611a36600454809214611858565b6118a3565b600455565b386119a2565b905067ffffffffffffffff6001549116143861193c565b61078b90611b68611b4f611a6f611ca5565b9390611a806114f16114d884611110565b602081015190919015611b6d57611afd611ae0611ae6611aa3611b029551611f81565b61020c611aaf86611f81565b6040517f73743a6574683a307800000000000000000000000000000000000000000000006020820152948593602985015b90610cd0565b8097611af061078d565b9384526020840152610ce7565b610d85565b611b4a611b0e82611110565b611b1786610d0d565b906001600160a01b03167fffffffffffffffffffffffff0000000000000000000000000000000000000000825416179055565b611110565b6001600160a01b03166000526008602052604060002090565b610f17565b611bb89150611b9c611b7d611ca5565b919092611afd611ae0611b92611aa387611f81565b809a611af061078d565b611ba461078d565b9182526020820152611afd6114d884611110565b611b02565b60405190611bcc604083610759565b600b82527f76696577696e67507562580000000000000000000000000000000000000000006020830152565b60405190611c07604083610759565b600b82527f76696577696e67507562590000000000000000000000000000000000000000006020830152565b602081519101519060208110611849575090565b805115610f125760200190565b805160021015610f125760220190565b805160011015610f125760210190565b805160031015610f125760230190565b805160041015610f125760240190565b908151811015610f12570160200190565b602090600080604051611cb88582610759565b818152604051611cdc8161020c888201948986526040808401526060830190610314565b51907301000000000000000000000000000000000000015afa90611cfe612873565b9115611da157611d16611d1083611c33565b9261293b565b508093600360ff611d40611d3a611d2c86611c47565b516001600160f81b03191690565b60f81c90565b1614611d4a575050565b919350916021611d7c61020c611d77611d65611d9e9561106a565b60405192839188830160209181520190565b611c33565b9301519161020c6040519384928301602191600160f91b825260018201520190565b91565b6064836040519062461bcd60e51b82526004820152601360248201527f72616e646f6d42797465733a206661696c6564000000000000000000000000006044820152fd5b908160011b918083046002149015171561106557565b908160031b917f1fffffffffffffffffffffffffffffffffffffffffffffffffffffffffffffff81160361106557565b908160081b91808304610100149015171561106557565b8181029291811591840414171561106557565b60408051909190611e668382610759565b6001815291601f1901366020840137565b60405190611e86602083610759565b6000808352366020840137565b90611e9d826107aa565b611eaa6040519182610759565b828152601f19611eba82946107aa565b0190602036910137565b60405190611ed3604083610759565b601082527f30313233343536373839616263646566000000000000000000000000000000006020830152565b634e487b7160e01b600052601260045260246000fd5b8115611f1f570490565b611eff565b8115611f1f570690565b906001820180921161106557565b906023820180921161106557565b600401908160041161106557565b906004820180921161106557565b906002820180921161106557565b9190820180921161106557565b9081518060011b908082046002149015171561106557611fa090611e93565b611fa8611ec4565b9260005b81518110156120395780611fe2611d2c611fdc611fd1611d3a611d2c60019789611c94565b60ff8a519116611f15565b88611c94565b611ff9611fee83611de5565b9160001a9186611c94565b5361201e611d2c611fdc612013611d3a611d2c8689611c94565b60ff8a519116611f24565b612032611fee61202d84611de5565b611f2e565b5301611fac565b5090925050565b90916001600160e01b031960249493168252600482015261206a82518093602086850191016102f1565b010190565b61034a93926001600160a01b0360609316825260208201528160408201520190610314565b908160209103126100ed575190565b926109509067ffffffffffffffff6060946001600160a01b038095999899168752166020860152608060408601526080850190610314565b156120e257565b606460405162461bcd60e51b815260206004820152600d60248201527f52656365697665724572726f72000000000000000000000000000000000000006044820152fd5b61214161215791602081519101206001600160e01b03191690565b61020c6003549360405194859360208501612040565b61216181516129e7565b9061216a612af5565b156122785760206121b691604051809381927f9c649fdf000000000000000000000000000000000000000000000000000000008352309067ffffffffffffffff461630600486016120a3565b038160006001600160a01b037f0000000000000000000000000000000000000000000000000000000000000000165af19081156102ec5761220391600191600091612249575b50146120db565b8080158015612223575b50505b61034a61221e6003546118a3565b600355565b600090612240575b6000808093818094f1156102ec57803861220d565b506108fc61222b565b61226b915060203d602011612271575b6122638183610759565b810190612094565b386121fc565b503d612259565b6001600160a01b037f000000000000000000000000000000000000000000000000000000000000000016906122b56000546001600160a01b031690565b9060015492803b156100ed576122ff9385600094604051968795869485937f9f3ce55a0000000000000000000000000000000000000000000000000000000085526004850161206f565b03925af180156102ec57612314575b50612210565b80612323600061232993610759565b806103f0565b3861230e565b61167b9061167561167070014551231950b75fc4402da1732fc9bebe199796602061238c6114f16114d86113336123a19b9a8561237e604051838d823782818581016005815203019020610c9c565b0151996116538b15156113fb565b01519761239a8915156113fb565b3691611509565b51902090089061034a6123b66116eb846115d6565b50612b3d565b92916123c6612b7a565b5060c081016123f38151604051906123dd8261071c565b6000825260006020830152604082015283612c6b565b6040516124216020828161241081830196878151938492016102f1565b81010301601f198101835282610759565b5190209261242d612b7a565b5060405190602082015260208152612446604082610759565b6000806040519286602085015260208452612462604085610759565b6124b86124ca60209561020c60405161247b8982610759565b8681526040519485936124a68b8601986124958a60049052565b6080604088015260a0870190610314565b90601f19868303016060870152610314565b90601f19848303016080850152610314565b51907301000000000000000000000000000000000000065afa906124ec612873565b911561253d575061034a949561250461250c92613760565b94859161396e565b612536612531604085019261252b612524855161109a565b9151611de5565b90611f74565b611f3c565b9052612c6b565b6064906040519062461bcd60e51b82526004820152600c60248201527f7369676e3a206661696c656400000000000000000000000000000000000000006044820152fd5b9060218251036126c057602182015191805115610f12576020015160f81c60006002821415806126b5575b61268d57808060405160208101906020825260206040820152602060608201526401000003d019600781808b80098b090860808201527f3fffffffffffffffffffffffffffffffffffffffffffffffffffffffbfffff0c60a08201526401000003d01960c082015260c0815261262360e082610759565b519060055afa90612632612873565b9115612665575061264f61264861265592611c33565b9283611f74565b60011690565b61265c5790565b61034a906110c7565b807f102875ed0000000000000000000000000000000000000000000000000000000060049252fd5b807fab4be0410000000000000000000000000000000000000000000000000000000060049252fd5b5060038214156125ac565b7fc88d458a0000000000000000000000000000000000000000000000000000000060005260046000fd5b906126f59291613234565b9291600084151585816127d5575b50806127cd575b1561278957938490816401000003d0196001835b61274157505050506401000003d019929183915081808780098092099509900990565b61274f84839a94959a611f15565b918194611f1f5761277c6401000003d01961277081612782958709826110fc565b889608959a8094611e42565b906110fc565b928361271e565b606460405162461bcd60e51b815260206004820152600e60248201527f496e76616c6964206e756d6265720000000000000000000000000000000000006044820152fd5b50600161270a565b6401000003d0199150141538612703565b9061286060009493859461284c60405194859361283560208601987fc67ea9d1000000000000000000000000000000000000000000000000000000008a526080602488015260a4870190610314565b916044860152602319858303016064860152610314565b90608483015203601f198101835282610759565b51906a636f6e736f6c652e6c6f675afa50565b3d1561289e573d90612884826107aa565b916128926040519384610759565b82523d6000602084013e565b606090565b9060098210156118d25752565b81601f820112156100ed5780516128c6816107aa565b926128d46040519485610759565b818452602082840101116100ed5761034a91602080850191016102f1565b9190916040818403126100ed57805167ffffffffffffffff81116100ed578361291c9183016128b0565b92602082015167ffffffffffffffff81116100ed5761034a92016128b0565b600080916040516129698161020c60208201946129598660046128a3565b6040808401526060830190610314565b51907301000000000000000000000000000000000000055afa61298a612873565b90156129a35780602080611231935183010191016128f2565b606460405162461bcd60e51b815260206004820152601b60248201527f67656e207369676e696e67206b6579706169723a206661696c656400000000006044820152fd5b6129ef612af5565b612aef576040517f95e911a80000000000000000000000000000000000000000000000000000000081527f00000000000000000000000000000000000000000000000000000000000000006001600160a01b0316602082600481845afa9182156102ec57600092612aca575b506020600491604051928380927ff60bbe2a0000000000000000000000000000000000000000000000000000000082525afa80156102ec5761034a9361252b92600092612aa9575b50611e42565b612ac391925060203d602011612271576122638183610759565b9038612aa3565b6004919250612ae7602091823d8411612271576122638183610759565b929150612a5b565b50600090565b6001600160a01b03600054166001600160a01b037f0000000000000000000000000000000000000000000000000000000000000000161480612b345790565b50600154461490565b612b7361020c612b546001600160a01b0393612581565b6040939193519283916020830195869091604092825260208201520190565b5190201690565b60405190612b878261071c565b60006040838281528260208201520152565b6040516101409190612bab8382610759565b6009815291601f19018260005b828110612bc457505050565b806060602080938501015201612bb8565b805160011015610f125760400190565b805160021015610f125760600190565b805160031015610f125760800190565b805160041015610f125760a00190565b805160051015610f125760c00190565b805160061015610f125760e00190565b805160071015610f12576101000190565b805160081015610f12576101200190565b8051821015610f125760209160051b010190565b612dc1602061034a93612d6760a0612c81612b99565b95612cac612ca7612c9a835167ffffffffffffffff1690565b67ffffffffffffffff1690565b612ebc565b612cb588611c47565b52612cbf87611c47565b50612ccc85820151612ebc565b612cd588612bd5565b52612cdf87612bd5565b50612cfb612ca7612c9a604084015167ffffffffffffffff1690565b612d0488612be5565b52612d0e87612be5565b50612d2b612d2660608301516001600160a01b031690565b612f6d565b612d3488612bf5565b52612d3e87612bf5565b50612d4c6080820151612ebc565b612d5588612c05565b52612d5f87612c05565b500151612fae565b612d7085612c15565b52612d7a84612c15565b50612d886040820151612ebc565b612d9185612c25565b52612d9b84612c25565b50612da68151612ebc565b612daf85612c35565b52612db984612c35565b500151612ebc565b612dca82612c46565b52612dd481612c46565b5061310c565b929091808403612e9e57506401000003d019908208612dfd575050600090600090565b6401000003d019818009906401000003d01960008180808087890960040996800960030908926401000003d0198180086401000003d019036401000003d0198111611065576401000003d01990818680090890816401000003d019036401000003d01981116110655760016401000003d019809693816112319981809796612e8d82808a819b09600809836110fc565b9408900908940960020991906132bb565b612eb6916401000003d01993918492611231966133b1565b916132bb565b90612ed7611394926040519384916020830160209181520190565b6000915b60208310612f3c575b612ef5612ef0846110df565b611e93565b9060005b8251811015612f2f57600190612f1b611d2c612f14886118a3565b9785611c94565b60001a612f288286611c94565b5301612ef9565b505061034a919250612fae565b91612f5a612f4d611d2c8386611c94565b6001600160f81b03191690565b612f675760010191612edb565b91612ee4565b61034a907fffffffffffffffffffffffffffffffffffffffff0000000000000000000000006040519160601b16602082015260148152612fae603482610759565b600081516001811490816130f4575b5015612fc7575090565b81519092916038821015613028579061020c61034a92611ae0949561300b612ffb608060ff612ff4611e55565b9716613a7d565b60f81b6001600160f81b03191690565b901a61301684611c47565b535b6040519485936020850190610cd0565b91836001945b6130388685611f15565b156130555761304961304f916118a3565b95611e2b565b9461302e565b90929450929092613068612ef082611f2e565b92613082612ffb61307d608060ff8616613a7d565b613a6b565b811a61308d85611c47565b5360015b828111156130af57505050611ae09293509061020c61034a92613018565b806130dd612ffb6130d76130d76130d16130cc6130ef978a6110fc565b613a91565b8c611f15565b60ff1690565b831a6130e98288611c94565b536118a3565b613091565b905015610f12576080602083015160f81c1038612fbd565b61311590613aa0565b80516000603882101561318b579061034a91613140612ffb60c060ff613139611e55565b9516613a7d565b901a61314b82611c47565b535b6020604051938261316786945180928580880191016102f1565b830161317b825180938580850191016102f1565b010103601f198101835282610759565b60019390929091835b61319e8683611f15565b156131b5576130496131af916118a3565b94613194565b9193909294506131c7612ef083611f2e565b926131dc612ffb61307d60c060ff8716613a7d565b821a6131e785611c47565b5360015b83811115613200575050505061034a9061314d565b80613223612ffb6130d76130d761321d6130cc61322f978b6110fc565b87611f15565b841a6130e98288611c94565b6131eb565b9192909260019280156132b357600094600194869392805b6132595750505050929190565b60018116613286575b600061327b926401000003d0199260011c9586956136db565b90939192909161324c565b936132a36401000003d01983868661327b969b60009d8597613547565b9099509790959092509050613262565b509150600190565b91939291841515838682613346575b50508061333d575b156127895760009483159081856001835b6133005750505050611f1f57829081808780098092099509900990565b61330d84839b959b611f15565b918193611f1f5761277c8961332881613335958709826110fc565b60009708949b8094611e42565b9291836132e3565b508215156132d2565b1415905083386132ca565b6040519060806133618184610759565b368337565b1561336d57565b606460405162461bcd60e51b815260206004820152601e60248201527f557365206a6163446f75626c652066756e6374696f6e20696e737465616400006044820152fd5b939190949284158061353f575b6135335781158061352b575b613520576133d6613351565b958315611f1f578380938160018009808a529882808b6001099460208301958652604083018c81529a82808e6001099160608601928352613417608061079c565b9d5190098c5251900960208a015251900960408701525190096060840152825193604084019485511480159061350e575b61345190613366565b8161345a613351565b95516134678651836110fc565b900885528160608501516135038288818060208b01956134888751836110fc565b900899602083019a8b5281808c8180808089518a5190099360408a019485526134b88286518c5190099a60600190565b998a525180096134c98951836110fc565b90086134df8280885186519009600209836110fc565b90089d519351905190096134f38d836110fc565b90089009935190519009836110fc565b900894510991929190565b50602084015160608501511415613448565b505050909190600190565b5080156133ca565b90945092506001919050565b5085156133be565b96949695939091958015806136d3575b6136c7578315806136bf575b6136b45761356f613351565b928515611f1f5788948694858093818c800983528183518d0995602084019687528280604086019b81818009808e52900991606086019283526135b2608061079c565b9b5190098a52519009602088015251900960408501525190096060820152818151956135de8360400190565b968751148015906136a2575b6135f390613366565b816135fc613351565b97516136098551836110fc565b90088752816060840151613695828a818060208a019561362a8751836110fc565b90089860208301998a5281808b8180808089518a5190099360408a0194855261365a8286518c5190099a60600190565b998a5251800961366b8951836110fc565b90086136818280885186519009600209836110fc565b90089c519351905190096134f38c836110fc565b9008965192969509900990565b506020830151606084015114156135ea565b935050945050929190565b508115613563565b50959450509050929190565b508215613557565b9093919492948015613758578215611f1f57828086800992818080808680099a8180808a88096004099c800990099280096003090891838780088403848111611065578490818580090890818503908582116110655785809180096008098503908582116110655785948580949281939b08900908940960020990565b909450919050565b90613769612b7a565b916008815110613918577f30000000000000000000000000000000000000000000000000000000000000006001600160f81b03196137a9611d2c84611c47565b160361391857600160f91b6001600160f81b03196137c9611d2c84611c54565b1603613918576137e16130d7611d3a611d2c84611c64565b6137f36130d7611d3a611d2c85611c74565b90602182116139185761380582611f4a565b61381a6130d7611d3a611d2c611fdc85611f2e565b916021831161391857600160f91b613838612f4d611d2c8589611c94565b03613918578061385061384b8587611f74565b611f58565b0361391857613860855191611f66565b036139185761386e90611f66565b600460218414613942575b602183146138dd575b9060208092860101519401015191602081106138c6575b50602081106138ae575b509083526020830152565b6138ba6138bf916110df565b611dfb565b1c386138a3565b6138ba6138d5919492946110df565b1c9138613899565b916001600160f81b03196138f4611d2c8488611c94565b1661391857602061390e6139088294611f2e565b926110ed565b9391925050613882565b7f86cd05c50000000000000000000000000000000000000000000000000000000060005260046000fd5b506001600160f81b0319613958611d2c86611c84565b16613918576139686005936110ed565b92613879565b91906040820191601b835280519160206000818401948551906139b3604051928392601b88859094939260ff6060936080840197845216602083015260408201520152565b838052039060015afa156102ec576000516001600160a01b0395861695168590036139e0575b5050505050565b613a18600093601c93846020975251905190604051948594859094939260ff6060936080840197845216602083015260408201520152565b838052039060015afa156102ec576000516001600160a01b031603613a415738808080806139d9565b7f4532600d0000000000000000000000000000000000000000000000000000000060005260046000fd5b60ff60379116019060ff821161106557565b9060ff8091169116019060ff821161106557565b601f8111611065576101000a90565b90815115613b2e57600091825b8151841015613ad657613ace600191613ac68685612c57565b515190611f74565b930192613aad565b613ae291929350611e93565b9060208201926000935b8251851015613b2757613b1f600191613b15613b088887612c57565b5160208151910183613b38565b613ac68786612c57565b940193613aec565b5092505090565b905061034a611e77565b915b6020811015613b5e57600019906020036101000a0190811990511690825116179052565b909182518152602081018091116110655791602081018091116110655790601f19810190811115613b3a57611022565b634e487b7160e01b600052605160045260246000fd5b600103613b8e57613bb791810190610b3f565b613bbf611ca5565b613bd96114f16114d886959495516001600160a01b031690565b602081015190919015613ccf5793613ca7611ae094613c9a611b689585613c76613cca9a613c5c613c0d611b4f9a51611f81565b613c4e613c1989611f81565b6040517f73743a6574683a3078000000000000000000000000000000000000000000000060208201529e8f9360298501611ae0565b03601f1981018d528c610759565b611afd8b613c6861078d565b928884526020840152610ce7565b5192613c8061078d565b938452602084015261020c60405193849260208401610e6f565b613ca2610ea9565b612126565b505b613cbd611b0e82516001600160a01b031690565b516001600160a01b031690565b600290565b929050613cda611ca5565b613ce5829392611f81565b94613cef83611f81565b6040517f73743a6574683a3078000000000000000000000000000000000000000000000060208201529687919060298301613d2991610cd0565b613d3291610cd0565b03601f1981018752613d449087610759565b85613d4d61078d565b918483526020830152613d5f90610ce7565b90613d6991610d85565b613d7161078d565b9083825260208201528551613d8c906001600160a01b031690565b613da9906001600160a01b03166000526006602052604060002090565b90613db391610d85565b613dbb61078d565b91825260208201526040519182916020830191613dd792610e6f565b03601f1981018252613de99082610759565b613df1610ea9565b90613dfb91612126565b50611b68611b4f613cca93613ca956fea2646970667358221220ff315db4f1f9b7e9ba2291dad092d82ee126e5f7f7fc0e9ab37bce642ab4029964736f6c634300081b0033",
  "linkReferences": {},
  "deployedLinkReferences": {}
}