{
  "_format": "hh-sol-artifact-1",
  "contractName": "StealthSigner",
  "sourceName": "contracts/StealthSigner.sol",
  "abi": [
    {
      "inputs": [
        {
          "internalType": "address",
          "name": "otherEnd",
          "type": "address"
        },
        {
          "internalType": "bytes21",
          "name": "_roflAppID",
          "type": "bytes21"
        }
      ],
      "stateMutability": "payable",
      "type": "constructor"
    },
    {
      "inputs": [],
      "name": "AutoConfigUnavailable",
      "type": "error"
    },
    {
      "inputs": [],
      "name": "DER_Split_Error",
      "type": "error"
    },
    {
      "inputs": [],
      "name": "MissingRemoteAddr",
      "type": "error"
    },
    {
      "inputs": [],
      "name": "MissingRemoteChainId",
      "type": "error"
    },
    {
      "inputs": [],
      "name": "SelfCallDisallowed",
      "type": "error"
    },
    {
      "inputs": [],
      "name": "expmod_Error",
      "type": "error"
    },
    {
      "inputs": [],
      "name": "k256Decompress_Invalid_Length_Error",
      "type": "error"
    },
    {
      "inputs": [],
      "name": "k256DeriveY_Invalid_Prefix_Error",
      "type": "error"
    },
    {
      "inputs": [],
      "name": "recoverV_Error",
      "type": "error"
    },
    {
      "anonymous": false,
      "inputs": [
        {
          "indexed": true,
          "internalType": "uint32",
          "name": "k",
          "type": "uint32"
        },
        {
          "indexed": true,
          "internalType": "bytes32",
          "name": "ephemeralPubHash",
          "type": "bytes32"
        },
        {
          "indexed": false,
          "internalType": "bytes1",
          "name": "viewHint",
          "type": "bytes1"
        },
        {
          "indexed": false,
          "internalType": "uint256",
          "name": "timestamp",
          "type": "uint256"
        }
      ],
      "name": "Announce",
      "type": "event"
    },
    {
      "anonymous": false,
      "inputs": [
        {
          "indexed": false,
          "internalType": "uint256",
          "name": "example",
          "type": "uint256"
        }
      ],
      "name": "TestEvent",
      "type": "event"
    },
    {
      "inputs": [],
      "name": "DOMAIN_SEPARATOR",
      "outputs": [
        {
          "internalType": "bytes32",
          "name": "",
          "type": "bytes32"
        }
      ],
      "stateMutability": "view",
      "type": "function"
    },
    {
      "inputs": [],
      "name": "EIP712_DOMAIN_TYPEHASH",
      "outputs": [
        {
          "internalType": "bytes32",
          "name": "",
          "type": "bytes32"
        }
      ],
      "stateMutability": "view",
      "type": "function"
    },
    {
      "inputs": [],
      "name": "SIGNIN_TYPE",
      "outputs": [
        {
          "internalType": "string",
          "name": "",
          "type": "string"
        }
      ],
      "stateMutability": "view",
      "type": "function"
    },
    {
      "inputs": [],
      "name": "SIGNIN_TYPEHASH",
      "outputs": [
        {
          "internalType": "bytes32",
          "name": "",
          "type": "bytes32"
        }
      ],
      "stateMutability": "view",
      "type": "function"
    },
    {
      "inputs": [
        {
          "internalType": "uint32",
          "name": "k",
          "type": "uint32"
        },
        {
          "internalType": "bytes",
          "name": "ephemeralPub",
          "type": "bytes"
        },
        {
          "internalType": "bytes1",
          "name": "viewHint",
          "type": "bytes1"
        }
      ],
      "name": "announce",
      "outputs": [],
      "stateMutability": "nonpayable",
      "type": "function"
    },
    {
      "inputs": [
        {
          "internalType": "uint256",
          "name": "example",
          "type": "uint256"
        }
      ],
      "name": "calledByOurselves",
      "outputs": [],
      "stateMutability": "nonpayable",
      "type": "function"
    },
    {
      "inputs": [
        {
          "internalType": "bytes",
          "name": "ephemeralPub",
          "type": "bytes"
        }
      ],
      "name": "checkAnnounce",
      "outputs": [
        {
          "internalType": "bool",
          "name": "",
          "type": "bool"
        }
      ],
      "stateMutability": "view",
      "type": "function"
    },
    {
      "inputs": [
        {
          "internalType": "string",
          "name": "metaAddress",
          "type": "string"
        },
        {
          "internalType": "uint32",
          "name": "k",
          "type": "uint32"
        },
        {
          "internalType": "bytes",
          "name": "ephemeralPub",
          "type": "bytes"
        },
        {
          "internalType": "bytes1",
          "name": "viewHint",
          "type": "bytes1"
        }
      ],
      "name": "checkStealthAddress",
      "outputs": [
        {
          "internalType": "address",
          "name": "stealthAddress",
          "type": "address"
        }
      ],
      "stateMutability": "view",
      "type": "function"
    },
    {
      "inputs": [
        {
          "components": [
            {
              "internalType": "address",
              "name": "user",
              "type": "address"
            },
            {
              "internalType": "uint32",
              "name": "time",
              "type": "uint32"
            },
            {
              "components": [
                {
                  "internalType": "bytes32",
                  "name": "r",
                  "type": "bytes32"
                },
                {
                  "internalType": "bytes32",
                  "name": "s",
                  "type": "bytes32"
                },
                {
                  "internalType": "uint256",
                  "name": "v",
                  "type": "uint256"
                }
              ],
              "internalType": "struct SignatureRSV",
              "name": "rsv",
              "type": "tuple"
            }
          ],
          "internalType": "struct StealthSigner.SignIn",
          "name": "auth",
          "type": "tuple"
        },
        {
          "internalType": "string",
          "name": "metaAddress",
          "type": "string"
        },
        {
          "internalType": "uint32",
          "name": "k",
          "type": "uint32"
        },
        {
          "internalType": "bytes",
          "name": "ephemeralPub",
          "type": "bytes"
        }
      ],
      "name": "computeStealthKey",
      "outputs": [
        {
          "internalType": "bytes32",
          "name": "stealthKey",
          "type": "bytes32"
        },
        {
          "internalType": "address",
          "name": "stealthAddress",
          "type": "address"
        }
      ],
      "stateMutability": "view",
      "type": "function"
    },
    {
      "inputs": [
        {
          "components": [
            {
              "internalType": "address",
              "name": "user",
              "type": "address"
            },
            {
              "internalType": "uint32",
              "name": "time",
              "type": "uint32"
            },
            {
              "components": [
                {
                  "internalType": "bytes32",
                  "name": "r",
                  "type": "bytes32"
                },
                {
                  "internalType": "bytes32",
                  "name": "s",
                  "type": "bytes32"
                },
                {
                  "internalType": "uint256",
                  "name": "v",
                  "type": "uint256"
                }
              ],
              "internalType": "struct SignatureRSV",
              "name": "rsv",
              "type": "tuple"
            }
          ],
          "internalType": "struct StealthSigner.SignIn",
          "name": "auth",
          "type": "tuple"
        },
        {
          "internalType": "string",
          "name": "metaAddress",
          "type": "string"
        },
        {
          "internalType": "uint32",
          "name": "k",
          "type": "uint32"
        },
        {
          "internalType": "bytes",
          "name": "ephemeralPub",
          "type": "bytes"
        },
        {
          "internalType": "uint64",
          "name": "nonce",
          "type": "uint64"
        },
        {
          "internalType": "uint256",
          "name": "gasPrice",
          "type": "uint256"
        },
        {
          "internalType": "uint256",
          "name": "chainId",
          "type": "uint256"
        }
      ],
      "name": "createTransaction",
      "outputs": [
        {
          "internalType": "bytes",
          "name": "",
          "type": "bytes"
        }
      ],
      "stateMutability": "view",
      "type": "function"
    },
    {
      "inputs": [
        {
          "internalType": "address",
          "name": "_sender",
          "type": "address"
        },
        {
          "internalType": "uint64",
          "name": "_senderChainId",
          "type": "uint64"
        },
        {
          "internalType": "bytes",
          "name": "_message",
          "type": "bytes"
        },
        {
          "internalType": "address",
          "name": "",
          "type": "address"
        }
      ],
      "name": "executeMessage",
      "outputs": [
        {
          "internalType": "uint256",
          "name": "",
          "type": "uint256"
        }
      ],
      "stateMutability": "payable",
      "type": "function"
    },
    {
      "inputs": [
        {
          "internalType": "string",
          "name": "metaAddress",
          "type": "string"
        },
        {
          "internalType": "uint32",
          "name": "k",
          "type": "uint32"
        }
      ],
      "name": "generateStealthAddress",
      "outputs": [
        {
          "internalType": "address",
          "name": "stealthAddress",
          "type": "address"
        },
        {
          "internalType": "bytes",
          "name": "ephemeralPub",
          "type": "bytes"
        },
        {
          "internalType": "bytes1",
          "name": "viewHint",
          "type": "bytes1"
        }
      ],
      "stateMutability": "view",
      "type": "function"
    },
    {
      "inputs": [
        {
          "components": [
            {
              "internalType": "address",
              "name": "user",
              "type": "address"
            },
            {
              "internalType": "uint32",
              "name": "time",
              "type": "uint32"
            },
            {
              "components": [
                {
                  "internalType": "bytes32",
                  "name": "r",
                  "type": "bytes32"
                },
                {
                  "internalType": "bytes32",
                  "name": "s",
                  "type": "bytes32"
                },
                {
                  "internalType": "uint256",
                  "name": "v",
                  "type": "uint256"
                }
              ],
              "internalType": "struct SignatureRSV",
              "name": "rsv",
              "type": "tuple"
            }
          ],
          "internalType": "struct StealthSigner.SignIn",
          "name": "auth",
          "type": "tuple"
        },
        {
          "internalType": "uint256",
          "name": "index",
          "type": "uint256"
        }
      ],
      "name": "getMetaAddress",
      "outputs": [
        {
          "internalType": "string",
          "name": "metaAddress",
          "type": "string"
        },
        {
          "internalType": "bytes",
          "name": "spendPub",
          "type": "bytes"
        },
        {
          "internalType": "bytes",
          "name": "viewingPub",
          "type": "bytes"
        }
      ],
      "stateMutability": "view",
      "type": "function"
    },
    {
      "inputs": [
        {
          "components": [
            {
              "internalType": "address",
              "name": "user",
              "type": "address"
            },
            {
              "internalType": "uint32",
              "name": "time",
              "type": "uint32"
            },
            {
              "components": [
                {
                  "internalType": "bytes32",
                  "name": "r",
                  "type": "bytes32"
                },
                {
                  "internalType": "bytes32",
                  "name": "s",
                  "type": "bytes32"
                },
                {
                  "internalType": "uint256",
                  "name": "v",
                  "type": "uint256"
                }
              ],
              "internalType": "struct SignatureRSV",
              "name": "rsv",
              "type": "tuple"
            }
          ],
          "internalType": "struct StealthSigner.SignIn",
          "name": "auth",
          "type": "tuple"
        }
      ],
      "name": "register",
      "outputs": [],
      "stateMutability": "nonpayable",
      "type": "function"
    },
    {
      "inputs": [],
      "name": "roflAppID",
      "outputs": [
        {
          "internalType": "bytes21",
          "name": "",
          "type": "bytes21"
        }
      ],
      "stateMutability": "view",
      "type": "function"
    }
  ],
  "bytecode": "0x60e060405260406151528038038091610017826100cd565b60e039126100b25760e0516001600160a01b03811681036100b257610100516001600160581b0319811681036100b25761005091610473565b604051614048908161110a8239608051818181611afc015281816123d20152818161249001528181612c220152612d12015260a05181611b8c015260c05181818161025e01528181610443015281816104fa01528181610aaa01526116050152f35b600080fd5b634e487b7160e01b600052604160045260246000fd5b60e0601f91909101601f19168101906001600160401b038211908210176100f357604052565b6100b7565b601f909101601f19168101906001600160401b038211908210176100f357604052565b6040519061012a6040836100f8565b565b6001600160401b0381116100f357601f01601f191660200190565b604051906101566040836100f8565b60088252673932b3b4b9ba32b960c11b6020830152565b60005b8381106101805750506000910152565b8181015183820152602001610170565b906101a36020928281519485920161016d565b0190565b60206101c091816040519382858094519384920161016d565b8101600681520301902090565b60206101e691816040519382858094519384920161016d565b8101600881520301902090565b90600182811c92168015610223575b602083101461020d57565b634e487b7160e01b600052602260045260246000fd5b91607f1691610202565b601f821161023a57505050565b6000526020600020906020601f840160051c83019310610275575b601f0160051c01905b818110610269575050565b6000815560010161025e565b9091508190610255565b81518051909392906001600160401b0381116100f3576102a9816102a385546101f3565b8561022d565b6020601f82116001146102f65781602093926102e19260019697986000926102eb575b50508160011b916000199060031b1c19161790565b84555b0151910155565b0151905038806102cc565b601f1982169061030b85600052602060002090565b9160005b8181106103515750918391600196979860209695889510610338575b505050811b0184556102e4565b015160001960f88460031b161c1916905538808061032b565b9192602060018192868c01518155019401920161030f565b634e487b7160e01b600052603260045260246000fd5b919091805490680100000000000000008210156100f3576001820180825582101561046e57600052602060002001825160018060401b0381116100f3576103d0816103ca84546101f3565b8461022d565b6020601f82116001146104055781906104019394956000926102eb5750508160011b916000199060031b1c19161790565b9055565b601f1982169061041a84600052602060002090565b9160005b8181106104565750958360019596971061043d575b505050811b019055565b015160001960f88460031b161c19169055388080610433565b9192602060018192868b01518155019401920161041e565b610369565b9061048961012a92610483610725565b90610672565b6104c7610494610147565b80516020918201206001600160e01b031916600090815260029091526040902080546001600160401b0319166001179055565b604080517f8b73c3c69bb8fe3d512ecc4cf759cc79239f7b179b0ffacaa9a75d522b39400f602082019081527fb5a3263d2d461072053ad1275d5cebc715eac557396f6c32f97ea05458c843c8928201929092527fc89efdaa54c0f20c7adf612882df0950f5a951637e0307cdcb4c672f298b8bc660608201524660808201523060a08201526105648160c081015b03601f1981018352826100f8565b51902060c05261065d6105bf61061d61057b61082b565b906105f161058761082b565b9290936105d361059686610a37565b6105c56105a285610a37565b604051680e6e874cae8d07460f60bb1b60208201529a8b93602985015b90610190565b03601f1981018952886100f8565b6105db61011b565b91825260208201526105ec866101a7565b61027f565b6105f961011b565b91825260208201526105ec3360018060a01b03166000526007602052604060002090565b6106493361062a836101cd565b80546001600160a01b0319166001600160a01b03909216919091179055565b33600090815260096020526040902061037f565b60581c60018060a81b03196005541617600555565b61068561067e83610af6565b9282610b16565b906001600160a01b0316801561071457821561070357600080546001600160a01b031916821781556001849055608083905260a0526001600160a01b03908116911614806106f8575b1590816106ee575b506106dd57565b6336fc0b5f60e21b60005260046000fd5b90504614386106d6565b5060015446146106ce565b630a9e222360e41b60005260046000fd5b635f9997df60e01b60005260046000fd5b600061053946148015610794575b6107875761074046610b33565b9050610774576107556262736360e81b610db2565b1561076557506262736360e81b90565b63047a7e4960e21b8152600490fd5b506a189cd8cb5d195cdd1b995d60aa1b90565b50641b1bd8d85b60da1b90565b50617a694614610733565b6020815191015190602081106107b3575090565b6000199060200360031b1b1690565b80511561046e5760200190565b90815181101561046e570160200190565b634e487b7160e01b600052601160045260246000fd5b70014551231950b75fc4402da1732fc9bebe19039070014551231950b75fc4402da1732fc9bebe19821161082657565b6107e0565b60209060008060405161083e85826100f8565b81815260405161086281610556888201948986526040808401526060830190610f7f565b51907301000000000000000000000000000000000000015afa90610884610fa4565b911561093f5761089c6108968361079f565b9261105f565b508093600360ff6108de6108d86108b2866107c2565b517fff000000000000000000000000000000000000000000000000000000000000001690565b60f81c90565b16146108e8575050565b91935091602161091a61055661091561090361093c956107f6565b60405192839188830160209181520190565b61079f565b930151916105566040519384928301602191600160f91b825260018201520190565b91565b60405162461bcd60e51b815260048101849052601360248201527f72616e646f6d42797465733a206661696c6564000000000000000000000000006044820152606490fd5b908160011b918083046002149015171561082657565b906109a48261012c565b6109b160405191826100f8565b82815280926109c2601f199161012c565b0190602036910137565b604051906109db6040836100f8565b601082526f181899199a1a9b1b9c1cb0b131b232b360811b6020830152565b634e487b7160e01b600052601260045260246000fd5b8115610a1a570490565b6109fa565b8115610a1a570690565b906001820180921161082657565b9081518060011b908082046002149015171561082657610a569061099a565b610a5e6109cc565b9260005b8151811015610aef5780610a986108b2610a92610a876108d86108b2600197896107cf565b60ff8a519116610a10565b886107cf565b610aaf610aa483610984565b9160001a91866107cf565b53610ad46108b2610a92610ac96108d86108b286896107cf565b60ff8a519116610a1f565b610ae8610aa4610ae384610984565b610a29565b5301610a62565b5090925050565b641b1bd8d85b60da1b8114610b1157610b0e90610db2565b90565b504690565b90641b1bd8d85b60da1b14610b0e5750610b2f46610b33565b5090565b60018114610d965760058114610d7a57600a8114610d5e5760388114610d425760618114610d265760898114610d0a5760fa8114610cee57610fa28114610cd2576105058114610cb657615afe8114610c9a57615aff8114610c7e5761a4b18114610c625761a4ba8114610c465761a8698114610c2a5761a86a8114610c0e57620138818114610bf25762066eeb14610bd75763047a7e4960e21b60005260046000fd5b737d43aabc515c356145049227cee54b608342c0ad90600190565b50737d43aabc515c356145049227cee54b608342c0ad90600190565b50735a926eeeafc4d217add17e9641e8ce23cd01ad5790600090565b5073e9533976c590200e32d95c53f06ae12d292cfc4790600190565b5073f5c6825015280cdfd0b56903f9f8b5a2233476f590600090565b50733ad9d0648cdaa2426331e894e980d0a5ed16257f90600090565b50739bb46d5100d2db4608112026951c9c965b233f4d90600190565b50739bb46d5100d2db4608112026951c9c965b233f4d90600090565b5073940daaba3f713abfabd79cdd991466fe698cbe5490600090565b5073b92d6933a024bcca9a21669a480c236cbc97311090600190565b5073ff4e183a0ceb4fa98e63bbf8077b929c8e5a2ba490600090565b5073afdb9c40c7144022811f034ee07ce2e110093fe690600090565b5073ad204986d6cb67a5bc76a3cb8974823f43cb9aaa90600190565b507395714818fdd7a5454f73da9c777b3ee6ebaeea6b90600090565b50730d71d18126e03646eb09fec929e2ae87b7cae69d90600090565b5073f25170f86e4291a99a9a560032fe9948b8bcfbb290600190565b50734066d196a423b2b3b8b054f4f40efb47a74e200c90600090565b67657468657265756d60c01b8114610f795765676f65726c6960d01b8114610f7357676f7074696d69736d60c01b8114610f6d576262736360e81b8114610f67576a189cd8cb5d195cdd1b995d60aa1b8114610f6157663837b63cb3b7b760c91b8114610f5b576566616e746f6d60d01b8114610f55576d19985b9d1bdb4b5d195cdd1b995d60921b8114610f4e576836b7b7b73934bb32b960b91b8114610f47576b617262697472756d2d6f6e6560a01b8114610f40576c617262697472756d2d6e6f766160981b8114610f395767736170706869726560c01b8114610f32576f1cd85c1c1a1a5c994b5d195cdd1b995d60821b8114610f2b576d706f6c79676f6e2d6d756d62616960901b8114610f2357686176616c616e63686560b81b8114610f1c576d6176616c616e6368652d66756a6960901b8114610f15576f185c989a5d1c9d5b4b5d195cdd1b995d60821b14610f0e57600090565b62066eeb90565b5061a93190565b5061a86a90565b506201388190565b50615aff90565b50615afe90565b5061a4ba90565b5061a4b190565b5061050590565b50610fa290565b5060fa90565b50608990565b50606190565b50603890565b50600a90565b50600590565b50600190565b90602091610f988151809281855285808601910161016d565b601f01601f1916010190565b3d15610fcf573d90610fb58261012c565b91610fc360405193846100f8565b82523d6000602084013e565b606090565b81601f820112156100b2578051610fea8161012c565b92610ff860405194856100f8565b818452602082840101116100b257610b0e916020808501910161016d565b9190916040818403126100b25780516001600160401b0381116100b2578361103f918301610fd4565b60208201519093906001600160401b0381116100b257610b0e9201610fd4565b60008091604051611086816105566020820194600486526040808401526060830190610f7f565b51907301000000000000000000000000000000000000055afa6110a7610fa4565b90156110c457806020806110c093518301019101611016565b9091565b60405162461bcd60e51b815260206004820152601b60248201527f67656e207369676e696e67206b6579706169723a206661696c656400000000006044820152606490fdfe6080604052600436101561001257600080fd5b60003560e01c8063033c9c62146101075780632f51a768146101025780633644e515146100fd578063383ccf98146100f857806351578ed6146100f3578063897bb3a8146100ee578063971692c6146100e95780639c649fdf146100e4578063c7977be7146100df578063c7d480fb146100da578063c80243a2146100d5578063dbe0a856146100d0578063e284250f146100cb578063efae93df146100c65763f01593a9146100c157600080fd5b610ebd565b610e68565b610d24565b610b77565b610a51565b610a21565b6108eb565b61087d565b61080d565b6107cd565b6105cf565b61049d565b61042b565b61037d565b61015e565b60031960a091011261011d57600490565b600080fd5b9181601f8401121561011d5782359167ffffffffffffffff831161011d576020838186019501011161011d57565b63ffffffff81160361011d57565b3461011d5761010060031936011261011d576101793661010c565b60a43567ffffffffffffffff811161011d57610199903690600401610122565b9060c4356101a681610150565b60e43567ffffffffffffffff811161011d576101c6903690600401610122565b939092602060008188016101f26101dc826113a1565b63ffffffff6101ea426113c1565b911611611492565b6101fa610eab565b9061024a61021061020a8c611499565b926113a1565b604080518781019586526001600160a01b03909416602086015263ffffffff9091169084015281606084015b03601f198101835282610979565b51902060405161190160f01b8482019081527f000000000000000000000000000000000000000000000000000000000000000060028201526022810192909252610297816042840161023c565b5190206040805191825260808a81013560ff166020840152818b0135918301919091526060808b0135908301528280529060015afa1561031c576102fc956102f76000516001600160a01b03806102ed85611499565b92169116146114af565b611577565b604080519283526001600160a01b039091166020830152819081015b0390f35b6114a3565b60005b8381106103345750506000910152565b8181015183820152602001610324565b90601f19601f60209361036281518092818752878088019101610321565b0116010190565b90602061037a928181520190610344565b90565b3461011d5761016060031936011261011d576103983661010c565b60a43567ffffffffffffffff811161011d576103b8903690600401610122565b909160c435926103c784610150565b60e43567ffffffffffffffff811161011d576103e7903690600401610122565b610104359167ffffffffffffffff8316830361011d576103189661041496610124359561014435976115be565b60405191829182610369565b600091031261011d57565b3461011d57600060031936011261011d5760206040517f00000000000000000000000000000000000000000000000000000000000000008152f35b9161048f9061048161037a9593606086526060860190610344565b908482036020860152610344565b916040818403910152610344565b3461011d5760c060031936011261011d576104b73661010c565b60a43590602060008183016104ce6101dc826113a1565b6104d6610eab565b906104e661021061020a87611499565b51902060405161190160f01b8482019081527f000000000000000000000000000000000000000000000000000000000000000060028201526022810192909252610533816042840161023c565b5190206040805191825260808581013560ff1660208401528186013591830191909152606080860135908301528280529060015afa1561031c57610318916105929161058d6000516001600160a01b03806102ed85611499565b6117b6565b60409391935193849384610466565b606435906001600160f81b03198216820361011d57565b604435906001600160f81b03198216820361011d57565b3461011d57608060031936011261011d5760043567ffffffffffffffff811161011d57610600903690600401610122565b6024359161060d83610150565b6044359167ffffffffffffffff831161011d5761079861023c6107786107726106e461076a61076461075f6107a79861075a6001600160f81b03196107218f6103189f6107b39f6106e96106686106ef933690600401610122565b9c906106cc61068e6106b36106a661067e6105a1565b9d602061069361068e838c6114fa565b611025565b0151986106a18a151561176b565b611513565b546001600160a01b031690565b6001600160a01b03166000526007602052604060002090565b6106db6020820151151561176b565b519d369161185b565b612788565b916128f1565b60408051602081019384529081019190915260e09290921b6001600160e01b031916606083015291816064810161023c565b5190209261074270014551231950b75fc4402da1732fc9bebe198510611892565b166001600160f81b03198360001a60f81b16146118dd565b611928565b612b42565b50612788565b929091612788565b90612fe1565b819391506040519283916020830195869091604092825260208201520190565b5190206001600160a01b031690565b6001600160a01b031690565b6040516001600160a01b0390911681529081906020820190565b3461011d57602060031936011261011d577f1440c4dd67b4344ea1905ec0318995133b550f168b4ee959a0da6b503d7d24146020600435604051908152a1005b3461011d57602060031936011261011d5760043567ffffffffffffffff811161011d57610841610848913690600401610122565b369161185b565b60208151910120600052600a602052602060ff604060002054166040519015158152f35b6001600160a01b0381160361011d57565b608060031936011261011d576004356108958161086c565b60243567ffffffffffffffff8116810361011d576044359067ffffffffffffffff821161011d576020926108d06108e3933690600401610122565b9290916108de60643561086c565b611ae5565b604051908152f35b3461011d57600060031936011261011d5760206040517f8b73c3c69bb8fe3d512ecc4cf759cc79239f7b179b0ffacaa9a75d522b39400f8152f35b634e487b7160e01b600052604160045260246000fd5b6060810190811067ffffffffffffffff82111761095857604052565b610926565b6040810190811067ffffffffffffffff82111761095857604052565b90601f601f19910116810190811067ffffffffffffffff82111761095857604052565b604051906109ab60e083610979565b565b604051906109ab604083610979565b906109ab6040519283610979565b67ffffffffffffffff811161095857601f01601f191660200190565b604051906109f5604083610979565b602082527f5369676e496e286164647265737320757365722c75696e7433322074696d65296020830152565b3461011d57600060031936011261011d57610318610a3d6109e6565b604051918291602083526020830190610344565b3461011d5760a060031936011261011d57610a6b3661010c565b60206000818301610a7e6101dc826113a1565b610a86610eab565b90610a9661021061020a87611499565b51902060405161190160f01b8482019081527f000000000000000000000000000000000000000000000000000000000000000060028201526022810192909252610ae3816042840161023c565b5190206040805191825260808581013560ff1660208401528186013591830191909152606080860135908301528280529060015afa1561031c57610b3e90610b396000516001600160a01b03806102ed85611499565b611c6b565b005b91610b706001600160f81b0319916001600160a01b03604094979697168552606060208601526060850190610344565b9416910152565b3461011d57604060031936011261011d5760043567ffffffffffffffff811161011d57610ba8903690600401610122565b9060243590610bb682610150565b610bc083826114fa565b610bc990611025565b60208101511515610bd99061176b565b5192610be491611513565b546001600160a01b03166000908152600760205260409020610c0590611025565b60208101511515610c159061176b565b5190610c1f611eb3565b9093610c2a90612788565b90610c33611dcb565b8282610c3d611e06565b90610c47936129ed565b610c50926128f1565b60408051602081019384529081019190915260e09290921b6001600160e01b03191660608301526044825290610c87606482610979565b51902090610ca870014551231950b75fc4402da1732fc9bebe198310611892565b610cb182611928565b610cba90612b42565b50610cc490612788565b9091610ccf90612788565b610cd99391612fe1565b6040805160208101938452808201929092528152610cf8606082610979565b5190206001600160a01b03166001600160a01b031660405192839260001a60f81b906103189284610b40565b3461011d57606060031936011261011d57600435610d4181610150565b60243567ffffffffffffffff811161011d57610d64610d76913690600401610122565b9190610d6e6105b8565b92369161185b565b602081519101209182600052600a60205260ff60406000205416610dfe5763ffffffff7f2651ab547e1ed123ef57140874ec96db50c082b83a209b1b4272a47d681688f191610ddf610dd286600052600a602052604060002090565b600160ff19825416179055565b604080516001600160f81b0319959095168552426020860152911692a3005b608460405162461bcd60e51b815260206004820152602160248201527f457068656d6572616c207075626c6963206b657920616c72656164792075736560448201527f64000000000000000000000000000000000000000000000000000000000000006064820152fd5b3461011d57600060031936011261011d57602060055460581b7fffffffffffffffffffffffffffffffffffffffffff000000000000000000000060405191168152f35b610eb36109e6565b6020815191012090565b3461011d57600060031936011261011d576020610ed86109e6565b818151910120604051908152f35b8092910360c0811261011d5760a0811261011d576060603f1960405192610f0c8461093c565b8535610f178161086c565b84526020860135610f2781610150565b6020850152011261011d5760a090604051610f418161093c565b604085013581526060850135602082015260808501356040820152604082015292013590565b90600182811c92168015610f97575b6020831014610f8157565b634e487b7160e01b600052602260045260246000fd5b91607f1691610f76565b60009291815491610fb183610f67565b80835292600181169081156110075750600114610fcd57505050565b60009081526020812093945091925b838310610fed575060209250010190565b600181602092949394548385870101520191019190610fdc565b9050602094955060ff1991509291921683830152151560051b010190565b906040516110328161095d565b602060018294604051611050816110498185610fa1565b0382610979565b84520154910152565b9061106c60209282815194859201610321565b0190565b6020611089918160405193828580945193849201610321565b8101600681520301902090565b60206110af918160405193828580945193849201610321565b8101600881520301902090565b601f82116110c957505050565b6000526020600020906020601f840160051c83019310611104575b601f0160051c01905b8181106110f8575050565b600081556001016110ed565b90915081906110e4565b919091825192835167ffffffffffffffff811161095857611139816111338554610f67565b856110bc565b6020601f821160011461118557816020939261117092600196979860009261117a575b50506000198260011b9260031b1c19161790565b84555b0151910155565b01519050388061115c565b601f1982169061119a85600052602060002090565b9160005b8181106111e057509183916001969798602096958895106111c7575b505050811b018455611173565b015160001960f88460031b161c191690553880806111ba565b9192602060018192868c01518155019401920161119e565b61037a9291815260406020820152602061121d83516040808501526080840190610344565b920151906060603f1982850301910152610344565b60405190611241604083610979565b601082527f726567697374657243616c6c6261636b000000000000000000000000000000006020830152565b634e487b7160e01b600052603260045260246000fd5b805482101561129b5760005260206000200190600090565b61126d565b919091805468010000000000000000811015610958576112c591600182018155611283565b61138b57825167ffffffffffffffff8111610958576112ee816112e88454610f67565b846110bc565b6020601f821160011461132257819061131e93949560009261117a5750506000198260011b9260031b1c19161790565b9055565b601f1982169061133784600052602060002090565b9160005b8181106113735750958360019596971061135a575b505050811b019055565b015160001960f88460031b161c19169055388080611350565b9192602060018192868b01518155019401920161133b565b634e487b7160e01b600052600060045260246000fd5b3561037a81610150565b634e487b7160e01b600052601160045260246000fd5b907ffffffffffffffffffffffffffffffffffffffffffffffffffffffffffffeae8082019182116113ee57565b6113ab565b70014551231950b75fc4402da1732fc9bebe19039070014551231950b75fc4402da1732fc9bebe1982116113ee57565b907fffffffffffffffffffffffffffffffffffffffffffffffffffffffffffffffe582019182116113ee57565b6401000003d01903906401000003d01982116113ee57565b60200390602082116113ee57565b9060001982019182116113ee57565b919082039182116113ee57565b1561011d57565b3561037a8161086c565b6040513d6000823e3d90fd5b156114b657565b606460405162461bcd60e51b815260206004820152600f60248201527f496e76616c6964205369676e2d496e00000000000000000000000000000000006044820152fd5b6020908260405193849283378101600681520301902090565b6020908260405193849283378101600881520301902090565b1561153357565b606460405162461bcd60e51b815260206004820152601160248201527f556e617574686f72697a656420757365720000000000000000000000000000006044820152fd5b906115b56115ba96959493926001600160a01b0380604051868682376020818881016008815203019020541691356115ae8161086c565b161461152c565b61253d565b9091565b9796959493929190602060008a8281016115da6101dc826113a1565b6115f161021061020a6115eb610eab565b94611499565b51902060405161190160f01b8482019081527f00000000000000000000000000000000000000000000000000000000000000006002820152602281019290925261163e816042840161023c565b5190206040805191825260808d81013560ff166020840152818e0135918301919091526060808e0135908301528280529060015afa1561031c5761037a986116946000516001600160a01b03806102ed85611499565b9661037a986116ca61176098996001600160a01b036116c26107a76116bc6106a68a8a611513565b93611499565b91161461152c565b6040517f897bb3a8000000000000000000000000000000000000000000000000000000006020820152602481018390529061171282604481015b03601f198101845283610979565b80611765575046915b61173661172661099c565b67ffffffffffffffff909b168b52565b60208a0152620f424060408a01523060608a0152600060808a015260a089015260c088015261253d565b6125c3565b9161171b565b1561177257565b606460405162461bcd60e51b815260206004820152601e60248201527f6d65746141646472657373206e6f7420726567697374657265642079657400006044820152fd5b6117fb6117e76117f494936001600160a01b0384356117d48161086c565b1660005260096020526040600020611283565b5060405194858092610fa1565b0384610979565b61184861068e6106b361180d86611070565b61184160016040519261181f8461095d565b604051611830816110498185610fa1565b84520154806020840152151561176b565b5193611499565b6118576020820151151561176b565b5191565b929192611867826109ca565b916118756040519384610979565b82948184528183011161011d578281602093846000960137010152565b1561189957565b606460405162461bcd60e51b815260206004820152601260248201527f747765616b20697320746f6f206c6172676500000000000000000000000000006044820152fd5b156118e457565b606460405162461bcd60e51b815260206004820152601160248201527f7669657720746167206d69736d617463680000000000000000000000000000006044820152fd5b90604051916020830152602082526109ab604083610979565b1561194857565b606460405162461bcd60e51b815260206004820152600d60248201527f4e6f744d657373616765427573000000000000000000000000000000000000006044820152fd5b1561199357565b606460405162461bcd60e51b815260206004820152601160248201527f4e6f7452656d6f7465456e64706f696e740000000000000000000000000000006044820152fd5b9060041161011d5790600490565b9060241161011d5760040190602090565b909291928360241161011d57831161011d57602401916023190190565b919091356001600160e01b031981169260048110611a2f575050565b6001600160e01b0319929350829060040360031b1b161690565b359060208110611a57575090565b6000199060200360031b1b1690565b15611a6d57565b606460405162461bcd60e51b815260206004820152600b60248201527f57726f6e675365714e756d0000000000000000000000000000000000000000006044820152fd5b60001981146113ee5760010190565b634e487b7160e01b600052602160045260246000fd5b60031115611ae057565b611ac0565b611bfd939291611b5091611b236001600160a01b037f0000000000000000000000000000000000000000000000000000000000000000163314611941565b6001600160a01b03611b406107a76000546001600160a01b031690565b9116149081611c54575b5061198c565b611bf8611bea611b87611b6c611b6686866119d7565b90611a13565b9480611b81611b7b82886119e5565b90611a49565b956119f6565b9490937f0000000000000000000000000000000000000000000000000000000000000000611c2f575b50611bcf816001600160e01b0319166000526002602052604060002090565b506001600160e01b0319166000526002602052604060002090565b5467ffffffffffffffff1690565b613dab565b611c0681611ad6565b60018114611c295780611c1a600292611ad6565b14611c2457600090565b600190565b50600290565b611c49611c4e91611c44600454809214611a66565b611ab1565b600455565b38611bb0565b905067ffffffffffffffff60015491161438611b4a565b6109ab90611d76611d5d611c7d611eb3565b9390611c8e61068e6106b384611499565b602081015190919015611d7b57611d0b611cee611cf4611cb1611d10955161218f565b61023c611cbd8661218f565b6040517f73743a6574683a307800000000000000000000000000000000000000000000006020820152948593602985015b90611059565b8097611cfe6109ad565b9384526020840152611070565b61110e565b611d58611d1c82611499565b611d2586611096565b906001600160a01b03167fffffffffffffffffffffffff0000000000000000000000000000000000000000825416179055565b611499565b6001600160a01b03166000526009602052604060002090565b6112a0565b611dc69150611daa611d8b611eb3565b919092611d0b611cee611da0611cb18761218f565b809a611cfe6109ad565b611db26109ad565b9182526020820152611d0b6106b384611499565b611d10565b60405190611dda604083610979565b600b82527f76696577696e67507562580000000000000000000000000000000000000000006020830152565b60405190611e15604083610979565b600b82527f76696577696e67507562590000000000000000000000000000000000000000006020830152565b602081519101519060208110611a57575090565b80511561129b5760200190565b80516002101561129b5760220190565b80516001101561129b5760210190565b80516003101561129b5760230190565b80516004101561129b5760240190565b90815181101561129b570160200190565b602090600080604051611ec68582610979565b818152604051611eea8161023c888201948986526040808401526060830190610344565b51907301000000000000000000000000000000000000015afa90611f0c612a7a565b9115611faf57611f24611f1e83611e41565b92612b42565b508093600360ff611f4e611f48611f3a86611e55565b516001600160f81b03191690565b60f81c90565b1614611f58575050565b919350916021611f8a61023c611f85611f73611fac956113f3565b60405192839188830160209181520190565b611e41565b9301519161023c6040519384928301602191600160f91b825260018201520190565b91565b6064836040519062461bcd60e51b82526004820152601360248201527f72616e646f6d42797465733a206661696c6564000000000000000000000000006044820152fd5b908160011b91808304600214901517156113ee57565b908160031b917f1fffffffffffffffffffffffffffffffffffffffffffffffffffffffffffffff8116036113ee57565b908160081b9180830461010014901517156113ee57565b818102929181159184041417156113ee57565b604080519091906120748382610979565b6001815291601f1901366020840137565b60405190612094602083610979565b6000808352366020840137565b906120ab826109ca565b6120b86040519182610979565b828152601f196120c882946109ca565b0190602036910137565b604051906120e1604083610979565b601082527f30313233343536373839616263646566000000000000000000000000000000006020830152565b634e487b7160e01b600052601260045260246000fd5b811561212d570490565b61210d565b811561212d570690565b90600182018092116113ee57565b90602382018092116113ee57565b60040190816004116113ee57565b90600482018092116113ee57565b90600282018092116113ee57565b919082018092116113ee57565b9081518060011b90808204600214901517156113ee576121ae906120a1565b6121b66120d2565b9260005b815181101561224757806121f0611f3a6121ea6121df611f48611f3a60019789611ea2565b60ff8a519116612123565b88611ea2565b6122076121fc83611ff3565b9160001a9186611ea2565b5361222c611f3a6121ea612221611f48611f3a8689611ea2565b60ff8a519116612132565b6122406121fc61223b84611ff3565b61213c565b53016121ba565b5090925050565b90916001600160e01b03196024949316825260048201526122788251809360208685019101610321565b010190565b61037a93926001600160a01b0360609316825260208201528160408201520190610344565b9081602091031261011d575190565b92610b709067ffffffffffffffff6060946001600160a01b038095999899168752166020860152608060408601526080850190610344565b156122f057565b606460405162461bcd60e51b815260206004820152600d60248201527f52656365697665724572726f72000000000000000000000000000000000000006044820152fd5b61234f61236591602081519101206001600160e01b03191690565b61023c600354936040519485936020850161224e565b61236f8151612bee565b90612378612cfc565b156124865760206123c491604051809381927f9c649fdf000000000000000000000000000000000000000000000000000000008352309067ffffffffffffffff461630600486016122b1565b038160006001600160a01b037f0000000000000000000000000000000000000000000000000000000000000000165af190811561031c5761241191600191600091612457575b50146122e9565b8080158015612431575b50505b61037a61242c600354611ab1565b600355565b60009061244e575b6000808093818094f11561031c57803861241b565b506108fc612439565b612479915060203d60201161247f575b6124718183610979565b8101906122a2565b3861240a565b503d612467565b6001600160a01b037f000000000000000000000000000000000000000000000000000000000000000016906124c36000546001600160a01b031690565b9060015492803b1561011d5761250d9385600094604051968795869485937f9f3ce55a0000000000000000000000000000000000000000000000000000000085526004850161227d565b03925af1801561031c57612522575b5061241e565b80612531600061253793610979565b80610420565b3861251c565b6106ef906106e96106e470014551231950b75fc4402da1732fc9bebe199796602061259a61068e6106b36106a66125a89b9a8561258c604051838d823782818581016006815203019020611025565b0151996106a18b151561176b565b01519761084189151561176b565b51902090089061037a6125bd61075f84611928565b50612d44565b92916125cd612d81565b5060c081016125fa8151604051906125e48261093c565b6000825260006020830152604082015283612e72565b604051612628602082816126178183019687815193849201610321565b81010301601f198101835282610979565b51902092612634612d81565b506040519060208201526020815261264d604082610979565b6000806040519286602085015260208452612669604085610979565b6126bf6126d160209561023c6040516126828982610979565b8681526040519485936126ad8b86019861269c8a60049052565b6080604088015260a0870190610344565b90601f19868303016060870152610344565b90601f19848303016080850152610344565b51907301000000000000000000000000000000000000065afa906126f3612a7a565b9115612744575061037a949561270b61271392613967565b948591613b75565b61273d612738604085019261273261272b8551611423565b9151611ff3565b90612182565b61214a565b9052612e72565b6064906040519062461bcd60e51b82526004820152600c60248201527f7369676e3a206661696c656400000000000000000000000000000000000000006044820152fd5b9060218251036128c75760218201519180511561129b576020015160f81c60006002821415806128bc575b61289457808060405160208101906020825260206040820152602060608201526401000003d019600781808b80098b090860808201527f3fffffffffffffffffffffffffffffffffffffffffffffffffffffffbfffff0c60a08201526401000003d01960c082015260c0815261282a60e082610979565b519060055afa90612839612a7a565b911561286c575061285661284f61285c92611e41565b9283612182565b60011690565b6128635790565b61037a90611450565b807f102875ed0000000000000000000000000000000000000000000000000000000060049252fd5b807fab4be0410000000000000000000000000000000000000000000000000000000060049252fd5b5060038214156127b3565b7fc88d458a0000000000000000000000000000000000000000000000000000000060005260046000fd5b906128fc929161343b565b9291600084151585816129dc575b50806129d4575b1561299057938490816401000003d0196001835b61294857505050506401000003d019929183915081808780098092099509900990565b61295684839a94959a612123565b91819461212d576129836401000003d0196129778161298995870982611485565b889608959a8094612050565b90611485565b9283612925565b606460405162461bcd60e51b815260206004820152600e60248201527f496e76616c6964206e756d6265720000000000000000000000000000000000006044820152fd5b506001612911565b6401000003d019915014153861290a565b90612a67600094938594612a53604051948593612a3c60208601987fc67ea9d1000000000000000000000000000000000000000000000000000000008a526080602488015260a4870190610344565b916044860152602319858303016064860152610344565b90608483015203601f198101835282610979565b51906a636f6e736f6c652e6c6f675afa50565b3d15612aa5573d90612a8b826109ca565b91612a996040519384610979565b82523d6000602084013e565b606090565b906009821015611ae05752565b81601f8201121561011d578051612acd816109ca565b92612adb6040519485610979565b8184526020828401011161011d5761037a9160208085019101610321565b91909160408184031261011d57805167ffffffffffffffff811161011d5783612b23918301612ab7565b92602082015167ffffffffffffffff811161011d5761037a9201612ab7565b60008091604051612b708161023c6020820194612b60866004612aaa565b6040808401526060830190610344565b51907301000000000000000000000000000000000000055afa612b91612a7a565b9015612baa57806020806115ba93518301019101612af9565b606460405162461bcd60e51b815260206004820152601b60248201527f67656e207369676e696e67206b6579706169723a206661696c656400000000006044820152fd5b612bf6612cfc565b612cf6576040517f95e911a80000000000000000000000000000000000000000000000000000000081527f00000000000000000000000000000000000000000000000000000000000000006001600160a01b0316602082600481845afa91821561031c57600092612cd1575b506020600491604051928380927ff60bbe2a0000000000000000000000000000000000000000000000000000000082525afa801561031c5761037a9361273292600092612cb0575b50612050565b612cca91925060203d60201161247f576124718183610979565b9038612caa565b6004919250612cee602091823d841161247f576124718183610979565b929150612c62565b50600090565b6001600160a01b03600054166001600160a01b037f0000000000000000000000000000000000000000000000000000000000000000161480612d3b5790565b50600154461490565b612d7a61023c612d5b6001600160a01b0393612788565b6040939193519283916020830195869091604092825260208201520190565b5190201690565b60405190612d8e8261093c565b60006040838281528260208201520152565b6040516101409190612db28382610979565b6009815291601f19018260005b828110612dcb57505050565b806060602080938501015201612dbf565b80516001101561129b5760400190565b80516002101561129b5760600190565b80516003101561129b5760800190565b80516004101561129b5760a00190565b80516005101561129b5760c00190565b80516006101561129b5760e00190565b80516007101561129b576101000190565b80516008101561129b576101200190565b805182101561129b5760209160051b010190565b612fc8602061037a93612f6e60a0612e88612da0565b95612eb3612eae612ea1835167ffffffffffffffff1690565b67ffffffffffffffff1690565b6130c3565b612ebc88611e55565b52612ec687611e55565b50612ed3858201516130c3565b612edc88612ddc565b52612ee687612ddc565b50612f02612eae612ea1604084015167ffffffffffffffff1690565b612f0b88612dec565b52612f1587612dec565b50612f32612f2d60608301516001600160a01b031690565b613174565b612f3b88612dfc565b52612f4587612dfc565b50612f5360808201516130c3565b612f5c88612e0c565b52612f6687612e0c565b5001516131b5565b612f7785612e1c565b52612f8184612e1c565b50612f8f60408201516130c3565b612f9885612e2c565b52612fa284612e2c565b50612fad81516130c3565b612fb685612e3c565b52612fc084612e3c565b5001516130c3565b612fd182612e4d565b52612fdb81612e4d565b50613313565b9290918084036130a557506401000003d019908208613004575050600090600090565b6401000003d019818009906401000003d01960008180808087890960040996800960030908926401000003d0198180086401000003d019036401000003d01981116113ee576401000003d01990818680090890816401000003d019036401000003d01981116113ee5760016401000003d019809693816115ba998180979661309482808a819b0960080983611485565b9408900908940960020991906134c2565b6130bd916401000003d019939184926115ba966135b8565b916134c2565b906130de611704926040519384916020830160209181520190565b6000915b60208310613143575b6130fc6130f784611468565b6120a1565b9060005b825181101561313657600190613122611f3a61311b88611ab1565b9785611ea2565b60001a61312f8286611ea2565b5301613100565b505061037a9192506131b5565b91613161613154611f3a8386611ea2565b6001600160f81b03191690565b61316e57600101916130e2565b916130eb565b61037a907fffffffffffffffffffffffffffffffffffffffff0000000000000000000000006040519160601b166020820152601481526131b5603482610979565b600081516001811490816132fb575b50156131ce575090565b8151909291603882101561322f579061023c61037a92611cee9495613212613202608060ff6131fb612063565b9716613c84565b60f81b6001600160f81b03191690565b901a61321d84611e55565b535b6040519485936020850190611059565b91836001945b61323f8685612123565b1561325c5761325061325691611ab1565b95612039565b94613235565b9092945092909261326f6130f78261213c565b92613289613202613284608060ff8616613c84565b613c72565b811a61329485611e55565b5360015b828111156132b657505050611cee9293509061023c61037a9261321f565b806132e46132026132de6132de6132d86132d36132f6978a611485565b613c98565b8c612123565b60ff1690565b831a6132f08288611ea2565b53611ab1565b613298565b90501561129b576080602083015160f81c10386131c4565b61331c90613ca7565b805160006038821015613392579061037a9161334761320260c060ff613340612063565b9516613c84565b901a61335282611e55565b535b6020604051938261336e8694518092858088019101610321565b830161338282518093858085019101610321565b010103601f198101835282610979565b60019390929091835b6133a58683612123565b156133bc576132506133b691611ab1565b9461339b565b9193909294506133ce6130f78361213c565b926133e361320261328460c060ff8716613c84565b821a6133ee85611e55565b5360015b83811115613407575050505061037a90613354565b8061342a6132026132de6132de6134246132d3613436978b611485565b87612123565b841a6132f08288611ea2565b6133f2565b9192909260019280156134ba57600094600194869392805b6134605750505050929190565b6001811661348d575b6000613482926401000003d0199260011c9586956138e2565b909391929091613453565b936134aa6401000003d019838686613482969b60009d859761374e565b9099509790959092509050613469565b509150600190565b9193929184151583868261354d575b505080613544575b156129905760009483159081856001835b613507575050505061212d57829081808780098092099509900990565b61351484839b959b612123565b91819361212d576129838961352f8161353c95870982611485565b60009708949b8094612050565b9291836134ea565b508215156134d9565b1415905083386134d1565b6040519060806135688184610979565b368337565b1561357457565b606460405162461bcd60e51b815260206004820152601e60248201527f557365206a6163446f75626c652066756e6374696f6e20696e737465616400006044820152fd5b9391909492841580613746575b61373a57811580613732575b613727576135dd613558565b95831561212d578380938160018009808a529882808b6001099460208301958652604083018c81529a82808e600109916060860192835261361e60806109bc565b9d5190098c5251900960208a0152519009604087015251900960608401528251936040840194855114801590613715575b6136589061356d565b81613661613558565b955161366e865183611485565b9008855281606085015161370a8288818060208b019561368f875183611485565b900899602083019a8b5281808c8180808089518a5190099360408a019485526136bf8286518c5190099a60600190565b998a525180096136d0895183611485565b90086136e6828088518651900960020983611485565b90089d519351905190096136fa8d83611485565b9008900993519051900983611485565b900894510991929190565b5060208401516060850151141561364f565b505050909190600190565b5080156135d1565b90945092506001919050565b5085156135c5565b96949695939091958015806138da575b6138ce578315806138c6575b6138bb57613776613558565b92851561212d5788948694858093818c800983528183518d0995602084019687528280604086019b81818009808e52900991606086019283526137b960806109bc565b9b5190098a52519009602088015251900960408501525190096060820152818151956137e58360400190565b968751148015906138a9575b6137fa9061356d565b81613803613558565b9751613810855183611485565b9008875281606084015161389c828a818060208a0195613831875183611485565b90089860208301998a5281808b8180808089518a5190099360408a019485526138618286518c5190099a60600190565b998a52518009613872895183611485565b9008613888828088518651900960020983611485565b90089c519351905190096136fa8c83611485565b9008965192969509900990565b506020830151606084015114156137f1565b935050945050929190565b50811561376a565b50959450509050929190565b50821561375e565b909391949294801561395f57821561212d57828086800992818080808680099a8180808a88096004099c8009900992800960030908918387800884038481116113ee578490818580090890818503908582116113ee5785809180096008098503908582116113ee5785948580949281939b08900908940960020990565b909450919050565b90613970612d81565b916008815110613b1f577f30000000000000000000000000000000000000000000000000000000000000006001600160f81b03196139b0611f3a84611e55565b1603613b1f57600160f91b6001600160f81b03196139d0611f3a84611e62565b1603613b1f576139e86132de611f48611f3a84611e72565b6139fa6132de611f48611f3a85611e82565b9060218211613b1f57613a0c82612158565b613a216132de611f48611f3a6121ea8561213c565b9160218311613b1f57600160f91b613a3f613154611f3a8589611ea2565b03613b1f5780613a57613a528587612182565b612166565b03613b1f57613a67855191612174565b03613b1f57613a7590612174565b600460218414613b49575b60218314613ae4575b906020809286010151940101519160208110613acd575b5060208110613ab5575b509083526020830152565b613ac1613ac691611468565b612009565b1c38613aaa565b613ac1613adc91949294611468565b1c9138613aa0565b916001600160f81b0319613afb611f3a8488611ea2565b16613b1f576020613b15613b0f829461213c565b92611476565b9391925050613a89565b7f86cd05c50000000000000000000000000000000000000000000000000000000060005260046000fd5b506001600160f81b0319613b5f611f3a86611e92565b16613b1f57613b6f600593611476565b92613a80565b91906040820191601b83528051916020600081840194855190613bba604051928392601b88859094939260ff6060936080840197845216602083015260408201520152565b838052039060015afa1561031c576000516001600160a01b039586169516859003613be7575b5050505050565b613c1f600093601c93846020975251905190604051948594859094939260ff6060936080840197845216602083015260408201520152565b838052039060015afa1561031c576000516001600160a01b031603613c48573880808080613be0565b7f4532600d0000000000000000000000000000000000000000000000000000000060005260046000fd5b60ff60379116019060ff82116113ee57565b9060ff8091169116019060ff82116113ee57565b601f81116113ee576101000a90565b90815115613d3557600091825b8151841015613cdd57613cd5600191613ccd8685612e5e565b515190612182565b930192613cb4565b613ce9919293506120a1565b9060208201926000935b8251851015613d2e57613d26600191613d1c613d0f8887612e5e565b5160208151910183613d3f565b613ccd8786612e5e565b940193613cf3565b5092505090565b905061037a612085565b915b6020811015613d6557600019906020036101000a0190811990511690825116179052565b909182518152602081018091116113ee5791602081018091116113ee5790601f19810190811115613d41576113ab565b634e487b7160e01b600052605160045260246000fd5b600103613d9557613dbe91810190610ee6565b613dc6611eb3565b613de061068e6106b386959495516001600160a01b031690565b602081015190919015613ed65793613eae611cee94613ea1611d769585613e7d613ed19a613e63613e14611d5d9a5161218f565b613e55613e208961218f565b6040517f73743a6574683a3078000000000000000000000000000000000000000000000060208201529e8f9360298501611cee565b03601f1981018d528c610979565b611d0b8b613e6f6109ad565b928884526020840152611070565b5192613e876109ad565b938452602084015261023c604051938492602084016111f8565b613ea9611232565b612334565b505b613ec4611d1c82516001600160a01b031690565b516001600160a01b031690565b600290565b929050613ee1611eb3565b613eec82939261218f565b94613ef68361218f565b6040517f73743a6574683a3078000000000000000000000000000000000000000000000060208201529687919060298301613f3091611059565b613f3991611059565b03601f1981018752613f4b9087610979565b85613f546109ad565b918483526020830152613f6690611070565b90613f709161110e565b613f786109ad565b9083825260208201528551613f93906001600160a01b031690565b613fb0906001600160a01b03166000526007602052604060002090565b90613fba9161110e565b613fc26109ad565b91825260208201526040519182916020830191613fde926111f8565b03601f1981018252613ff09082610979565b613ff8611232565b9061400291612334565b50611d76611d5d613ed193613eb056fea26469706673582212202881430dd42428c43ac96ced6d3d797f02f41edf5cdd64ab93398f1c9e2d6fc264736f6c634300081b0033",
  "linkReferences": {},
  "deployedLinkReferences": {}
}